{
  "contractName": "Approvable",
  "abi": [
    {
      "constant": true,
      "inputs": [
        {
          "name": "",
          "type": "address"
        }
      ],
      "name": "approved",
      "outputs": [
        {
          "name": "",
          "type": "bool"
        }
      ],
      "payable": false,
      "stateMutability": "view",
      "type": "function"
    },
    {
      "inputs": [],
      "payable": false,
      "stateMutability": "nonpayable",
      "type": "constructor"
    },
    {
      "constant": false,
      "inputs": [
        {
          "name": "_address",
          "type": "address"
        }
      ],
      "name": "approve",
      "outputs": [],
      "payable": false,
      "stateMutability": "nonpayable",
      "type": "function"
    },
    {
      "constant": false,
      "inputs": [
        {
          "name": "_address",
          "type": "address"
        }
      ],
      "name": "revokeApproval",
      "outputs": [],
      "payable": false,
      "stateMutability": "nonpayable",
      "type": "function"
    }
  ],
  "bytecode": "0x608060405234801561001057600080fd5b50336000908152602081905260409020805460ff191660011790556101b28061003a6000396000f3fe608060405234801561001057600080fd5b50600436106100415760003560e01c8063484685b014610046578063d8b964e61461006e578063daea85c5146100a8575b600080fd5b61006c6004803603602081101561005c57600080fd5b50356001600160a01b03166100ce565b005b6100946004803603602081101561008457600080fd5b50356001600160a01b031661011e565b604080519115158252519081900360200190f35b61006c600480360360208110156100be57600080fd5b50356001600160a01b0316610133565b3360009081526020819052604090205460ff166100ea57600080fd5b6001600160a01b0381166100fd57600080fd5b6001600160a01b03166000908152602081905260409020805460ff19169055565b60006020819052908152604090205460ff1681565b3360009081526020819052604090205460ff1661014f57600080fd5b6001600160a01b03811661016257600080fd5b6001600160a01b03166000908152602081905260409020805460ff1916600117905556fea165627a7a723058209d817b0d85792981d3d77fa67a60f65552e4a768f66745ff815538c4f47197c20029",
  "source": "pragma solidity ^0.5.8;\n\n\ncontract Approvable {\n\n    mapping(address => bool) public approved;\n\n    constructor () public {\n        approved[msg.sender] = true;\n    }\n\n    function approve(address _address) public onlyApproved {\n        require(_address != address(0));\n        approved[_address] = true;\n    }\n\n    function revokeApproval(address _address) public onlyApproved {\n        require(_address != address(0));\n        approved[_address] = false;\n    }\n\n    modifier onlyApproved() {\n        require(approved[msg.sender]);\n        _;\n    }\n}\n",
  "sourcePath": "/Users/john/distense-contracts/contracts/lib/Approvable.sol",
  "compiler": {
    "name": "solc",
    "version": "0.5.8+commit.23d335f2.Emscripten.clang"
  },
  "schemaVersion": "3.0.11",
  "updatedAt": "2019-07-18T22:46:04.006Z",
  "devdoc": {
    "methods": {}
  },
  "userdoc": {
    "methods": {}
  }
}