{
  "contractName": "BugBounty",
  "abi": [
    {
      "constant": true,
      "inputs": [],
      "name": "numTasksBounty",
      "outputs": [
        {
          "name": "",
          "type": "uint256"
        }
      ],
      "payable": false,
      "stateMutability": "view",
      "type": "function"
    },
    {
      "constant": true,
      "inputs": [],
      "name": "didPerEtherBountyPaid",
      "outputs": [
        {
          "name": "",
          "type": "bool"
        }
      ],
      "payable": false,
      "stateMutability": "view",
      "type": "function"
    },
    {
      "constant": true,
      "inputs": [],
      "name": "DIDbalanceBounty",
      "outputs": [
        {
          "name": "",
          "type": "uint256"
        }
      ],
      "payable": false,
      "stateMutability": "view",
      "type": "function"
    },
    {
      "constant": true,
      "inputs": [],
      "name": "bugBountyStartTime",
      "outputs": [
        {
          "name": "",
          "type": "uint256"
        }
      ],
      "payable": false,
      "stateMutability": "view",
      "type": "function"
    },
    {
      "constant": true,
      "inputs": [],
      "name": "owner",
      "outputs": [
        {
          "name": "",
          "type": "address"
        }
      ],
      "payable": false,
      "stateMutability": "view",
      "type": "function"
    },
    {
      "constant": true,
      "inputs": [],
      "name": "netContributionsDIDBountyPaid",
      "outputs": [
        {
          "name": "",
          "type": "bool"
        }
      ],
      "payable": false,
      "stateMutability": "view",
      "type": "function"
    },
    {
      "constant": true,
      "inputs": [],
      "name": "didPerEtherBounty",
      "outputs": [
        {
          "name": "",
          "type": "uint256"
        }
      ],
      "payable": false,
      "stateMutability": "view",
      "type": "function"
    },
    {
      "constant": true,
      "inputs": [],
      "name": "DIDbalanceBountyPaid",
      "outputs": [
        {
          "name": "",
          "type": "bool"
        }
      ],
      "payable": false,
      "stateMutability": "view",
      "type": "function"
    },
    {
      "constant": true,
      "inputs": [],
      "name": "bugBountyDurationDays",
      "outputs": [
        {
          "name": "",
          "type": "uint256"
        }
      ],
      "payable": false,
      "stateMutability": "view",
      "type": "function"
    },
    {
      "constant": true,
      "inputs": [],
      "name": "numTasksBountyPaid",
      "outputs": [
        {
          "name": "",
          "type": "bool"
        }
      ],
      "payable": false,
      "stateMutability": "view",
      "type": "function"
    },
    {
      "constant": true,
      "inputs": [],
      "name": "netContributionsDIDBounty",
      "outputs": [
        {
          "name": "",
          "type": "uint256"
        }
      ],
      "payable": false,
      "stateMutability": "view",
      "type": "function"
    },
    {
      "inputs": [
        {
          "name": "_DIDTokenAddress",
          "type": "address"
        },
        {
          "name": "_DistenseAddress",
          "type": "address"
        }
      ],
      "payable": false,
      "stateMutability": "nonpayable",
      "type": "constructor"
    },
    {
      "constant": false,
      "inputs": [],
      "name": "requestTasksCompletedBugBounty",
      "outputs": [
        {
          "name": "",
          "type": "bool"
        }
      ],
      "payable": false,
      "stateMutability": "nonpayable",
      "type": "function"
    },
    {
      "constant": false,
      "inputs": [],
      "name": "requestDIDBalanceBugBounty",
      "outputs": [
        {
          "name": "",
          "type": "bool"
        }
      ],
      "payable": false,
      "stateMutability": "nonpayable",
      "type": "function"
    },
    {
      "constant": false,
      "inputs": [],
      "name": "requestNetContributionsDIDBugBounty",
      "outputs": [
        {
          "name": "",
          "type": "bool"
        }
      ],
      "payable": false,
      "stateMutability": "nonpayable",
      "type": "function"
    },
    {
      "constant": false,
      "inputs": [],
      "name": "requestDIDPerEtherBountyBugBounty",
      "outputs": [
        {
          "name": "",
          "type": "bool"
        }
      ],
      "payable": false,
      "stateMutability": "nonpayable",
      "type": "function"
    },
    {
      "constant": false,
      "inputs": [],
      "name": "receiveEther",
      "outputs": [
        {
          "name": "",
          "type": "bool"
        }
      ],
      "payable": true,
      "stateMutability": "payable",
      "type": "function"
    },
    {
      "constant": false,
      "inputs": [
        {
          "name": "amount",
          "type": "uint256"
        }
      ],
      "name": "withdrawEther",
      "outputs": [
        {
          "name": "",
          "type": "bool"
        }
      ],
      "payable": false,
      "stateMutability": "nonpayable",
      "type": "function"
    },
    {
      "constant": false,
      "inputs": [],
      "name": "withdrawAllEther",
      "outputs": [
        {
          "name": "",
          "type": "bool"
        }
      ],
      "payable": false,
      "stateMutability": "nonpayable",
      "type": "function"
    },
    {
      "constant": false,
      "inputs": [
        {
          "name": "_seconds",
          "type": "uint256"
        }
      ],
      "name": "extendBugBounty",
      "outputs": [
        {
          "name": "",
          "type": "uint256"
        }
      ],
      "payable": false,
      "stateMutability": "nonpayable",
      "type": "function"
    }
  ],
  "bytecode": "0x6080604052624f1a00600455678ac7230489e800006005819055600655674563918244f4000060078190556008556009805463ffffffff1916905534801561004657600080fd5b50604051604080610a908339810180604052604081101561006657600080fd5b508051602090910151600080546001600160a01b03199081163317909155600180546001600160a01b0394851690831617905560028054939092169216919091179055426003556109d4806100bc6000396000f3fe6080604052600436106101145760003560e01c80638da5cb5b116100a0578063e6a15ccc11610064578063e6a15ccc1461029e578063e8f270c6146102b3578063ebc748d6146102c8578063f102a3f9146102dd578063f52e1fac146102f257610114565b80638da5cb5b1461021157806395f172b614610242578063a3912ec814610257578063b5248ab61461025f578063d269cafa1461027457610114565b8063661f923d116100e7578063661f923d146101a8578063696b7fcf146101bd57806370998fdd146101d25780637310ff97146101e757806373d95b38146101fc57610114565b806331c911171461011957806333c24c29146101425780633bed33ce146101695780635bd4a30514610193575b600080fd5b34801561012557600080fd5b5061012e610307565b604080519115158252519081900360200190f35b34801561014e57600080fd5b50610157610366565b60408051918252519081900360200190f35b34801561017557600080fd5b5061012e6004803603602081101561018c57600080fd5b503561036c565b34801561019f57600080fd5b5061012e6103cc565b3480156101b457600080fd5b5061012e6103dc565b3480156101c957600080fd5b5061012e610528565b3480156101de57600080fd5b50610157610694565b3480156101f357600080fd5b5061015761069a565b34801561020857600080fd5b5061012e6106a0565b34801561021d57600080fd5b506102266107d1565b604080516001600160a01b039092168252519081900360200190f35b34801561024e57600080fd5b5061012e6107e0565b61012e6107ee565b34801561026b57600080fd5b506101576107f3565b34801561028057600080fd5b506101576004803603602081101561029757600080fd5b50356107f9565b3480156102aa57600080fd5b5061012e610821565b3480156102bf57600080fd5b5061015761082a565b3480156102d457600080fd5b5061012e610830565b3480156102e957600080fd5b5061015761083f565b3480156102fe57600080fd5b5061012e610845565b600080546001600160a01b0316331461031f57600080fd5b60045460035401421161033157600080fd5b6040513390303180156108fc02916000818181858888f1935050505015801561035e573d6000803e3d6000fd5b506001905090565b60075481565b600080546001600160a01b0316331461038457600080fd5b60045460035401421161039657600080fd5b604051339083156108fc029084906000818181858888f193505050501580156103c3573d6000803e3d6000fd5b50600192915050565b6009546301000000900460ff1681565b60006004546003540142106103f057600080fd5b60015460408051600160e01b63d7b16d9102815233600482015290516001600160a01b0390921691600091839163d7b16d919160248082019260a092909190829003018186803b15801561044357600080fd5b505afa158015610457573d6000803e3d6000fd5b505050506040513d60a081101561046d57600080fd5b50608001519050603281111561051f5760095462010000900460ff16156104de5760408051600160e51b62461bcd02815260206004820152601b60248201527f6e756d5461736b73426f756e747920616c726561647920706169640000000000604482015290519081900360640190fd5b6009805462ff0000191662010000179055600754604051339180156108fc02916000818181858888f1935050505015801561051d573d6000803e3d6000fd5b505b60019250505090565b600060045460035401421061053c57600080fd5b60025460408051600160e01b638fc6ad2d028152600160a91b6a3234b22832b922ba3432b902600482015290516001600160a01b03909216916000918391638fc6ad2d91602480820192602092909190829003018186803b1580156105a057600080fd5b505afa1580156105b4573d6000803e3d6000fd5b505050506040513d60208110156105ca57600080fd5b50519050670de0b6b3a76400008110806105ec5750683635c9adc5dea0000081115b1561051f576009546301000000900460ff16156106535760408051600160e51b62461bcd02815260206004820152601e60248201527f6469645065724574686572426f756e747920616c726561647920706169640000604482015290519081900360640190fd5b6009805463ff00000019166301000000179055600854604051339180156108fc02916000818181858888f1935050505015801561051d573d6000803e3d6000fd5b60055481565b60035481565b60006004546003540142106106b457600080fd5b60015460408051600160e01b63d7b16d9102815233600482015290516001600160a01b0390921691600091839163d7b16d919160248082019260a092909190829003018186803b15801561070757600080fd5b505afa15801561071b573d6000803e3d6000fd5b505050506040513d60a081101561073157600080fd5b5060200151905069021e19e0c9bab240000081111561051f57600954610100900460ff161561079457604051600160e51b62461bcd0281526004018080602001828103825260268152602001806109836026913960400191505060405180910390fd5b6009805461ff001916610100179055600654604051339180156108fc02916000818181858888f1935050505015801561051d573d6000803e3d6000fd5b6000546001600160a01b031681565b600954610100900460ff1681565b600190565b60085481565b600080546001600160a01b0316331461081157600080fd5b5060048054820190819055919050565b60095460ff1681565b60045481565b60095462010000900460ff1681565b60065481565b600060045460035401421061085957600080fd5b60015460408051600160e01b63d7b16d9102815233600482015290516001600160a01b0390921691600091839163d7b16d919160248082019260a092909190829003018186803b1580156108ac57600080fd5b505afa1580156108c0573d6000803e3d6000fd5b505050506040513d60a08110156108d657600080fd5b5051905069152d02c7e14af680000081111561051f5760095460ff16156109475760408051600160e51b62461bcd02815260206004820152601d60248201527f44494462616c616e6365426f756e747920616c72656164792070616964000000604482015290519081900360640190fd5b6009805460ff19166001179055600554604051339180156108fc02916000818181858888f1935050505015801561051d573d6000803e3d6000fdfe6e6574436f6e747269627574696f6e73444944426f756e747920616c72656164792070616964a165627a7a723058206dc5bfeaadffdb66e76171522acaf2b81277540644e92f22dbb79cc6e4f21cf40029",
  "source": "pragma solidity ^0.5.8;\n\nimport './lib/Ownable.sol';\nimport './DIDToken.sol';\nimport './Distense.sol';\nimport { SharedStructs } from \"./lib/SharedStructs.sol\";\n\n\ncontract BugBounty is Ownable {\n\n    address DIDTokenAddress;\n    address DistenseAddress;\n\n    uint256 public bugBountyStartTime;\n    uint256 public bugBountyDurationDays = 60 days;\n\n    uint256 public DIDbalanceBounty = 10 ether;\n    uint256 public netContributionsDIDBounty = 10 ether;\n    uint256 public numTasksBounty = 5 ether;\n    uint256 public didPerEtherBounty = 5 ether;\n\n    bool public DIDbalanceBountyPaid = false;\n    bool public netContributionsDIDBountyPaid = false;\n    bool public numTasksBountyPaid = false;\n    bool public didPerEtherBountyPaid = false;\n\n    constructor (\n        address _DIDTokenAddress,\n        address _DistenseAddress\n    ) public {\n        DIDTokenAddress = _DIDTokenAddress;\n        DistenseAddress = _DistenseAddress;\n        bugBountyStartTime = now;\n    }\n\n    function requestTasksCompletedBugBounty() bugBountyOpen public returns (bool) {\n\n        DIDToken didToken = DIDToken(DIDTokenAddress);\n\n        //  See https://github.com/Distense/distense-contracts/blob/0798052090e93a4ad7c6282875be7ee50a22498d/contracts/DIDToken.sol#L30\n        (,,,, uint256 tasksCompleted) = didToken.DIDHolders(msg.sender);\n        if (tasksCompleted > 50) {\n            require(numTasksBountyPaid == false, \"numTasksBounty already paid\");\n            numTasksBountyPaid = true;\n            msg.sender.transfer(numTasksBounty);\n        }\n        return true;\n    }\n\n    function requestDIDBalanceBugBounty() bugBountyOpen public returns (bool) {\n\n        DIDToken didToken = DIDToken(DIDTokenAddress);\n\n        //  See https://github.com/Distense/distense-contracts/blob/0798052090e93a4ad7c6282875be7ee50a22498d/contracts/DIDToken.sol#L30\n        (uint256 DIDBalance,,,,) = didToken.DIDHolders(msg.sender);\n        if (DIDBalance > 100000 ether) {\n            require(DIDbalanceBountyPaid == false, \"DIDbalanceBounty already paid\");\n            DIDbalanceBountyPaid = true;\n            msg.sender.transfer(DIDbalanceBounty);\n        }\n        return true;\n    }\n\n    function requestNetContributionsDIDBugBounty() bugBountyOpen public returns (bool) {\n\n        DIDToken didToken = DIDToken(DIDTokenAddress);\n\n        //  See https://github.com/Distense/distense-contracts/blob/0798052090e93a4ad7c6282875be7ee50a22498d/contracts/DIDToken.sol#L30\n        (, uint256 netContributionsDID,,,) = didToken.DIDHolders(msg.sender);\n        if (netContributionsDID > 10000 ether) {\n            require(netContributionsDIDBountyPaid == false, \"netContributionsDIDBounty already paid\");\n            netContributionsDIDBountyPaid = true;\n            msg.sender.transfer(netContributionsDIDBounty);\n        }\n        return true;\n    }\n\n\n    function requestDIDPerEtherBountyBugBounty() bugBountyOpen public returns (bool) {\n\n        Distense distense = Distense(DistenseAddress);\n\n        //  Default value is 200/ether or roughly $1USD at time of deploy\n        //  See Distense contract\n        uint256 didPerEtherParameterValue = distense.getParameterValueByTitle('didPerEther');\n        if (didPerEtherParameterValue < 1 ether || didPerEtherParameterValue > 1000 ether) {\n            require(didPerEtherBountyPaid == false, \"didPerEtherBounty already paid\");\n            didPerEtherBountyPaid = true;\n            msg.sender.transfer(didPerEtherBounty);\n        }\n        return true;\n    }\n\n    function receiveEther() public payable returns (bool) {\n        return true;\n    }\n\n    function withdrawEther(uint256 amount) onlyOwner bugBountyClosed public returns (bool) {\n        msg.sender.transfer(amount);\n        return true;\n    }\n\n    function withdrawAllEther() onlyOwner bugBountyClosed public returns (bool) {\n        msg.sender.transfer(address(this).balance);\n        return true;\n    }\n\n    function extendBugBounty(uint256 _seconds) onlyOwner public returns (uint256) {\n        bugBountyDurationDays += _seconds;\n        return bugBountyDurationDays;\n    }\n\n    modifier bugBountyOpen() {\n        require(now < bugBountyStartTime + bugBountyDurationDays);\n        _;\n    }\n\n    modifier bugBountyClosed() {\n        require(now > bugBountyStartTime + bugBountyDurationDays);\n        _;\n    }\n}\n",
  "sourcePath": "/Users/john/distense-contracts/contracts/BugBounty.sol",
  "compiler": {
    "name": "solc",
    "version": "0.5.8+commit.23d335f2.Emscripten.clang"
  },
  "schemaVersion": "3.0.11",
  "updatedAt": "2019-08-01T21:51:50.447Z",
  "devdoc": {
    "methods": {}
  },
  "userdoc": {
    "methods": {}
  }
}