{
  "contractName": "DIDToken",
  "abi": [
    {
      "constant": true,
      "inputs": [],
      "name": "name",
      "outputs": [
        {
          "name": "",
          "type": "string"
        }
      ],
      "payable": false,
      "stateMutability": "view",
      "type": "function"
    },
    {
      "constant": true,
      "inputs": [],
      "name": "DistenseAddress",
      "outputs": [
        {
          "name": "",
          "type": "address"
        }
      ],
      "payable": false,
      "stateMutability": "view",
      "type": "function"
    },
    {
      "constant": true,
      "inputs": [],
      "name": "totalSupply",
      "outputs": [
        {
          "name": "",
          "type": "uint256"
        }
      ],
      "payable": false,
      "stateMutability": "view",
      "type": "function"
    },
    {
      "constant": true,
      "inputs": [],
      "name": "investedAggregate",
      "outputs": [
        {
          "name": "",
          "type": "uint256"
        }
      ],
      "payable": false,
      "stateMutability": "view",
      "type": "function"
    },
    {
      "constant": true,
      "inputs": [],
      "name": "decimals",
      "outputs": [
        {
          "name": "",
          "type": "uint8"
        }
      ],
      "payable": false,
      "stateMutability": "view",
      "type": "function"
    },
    {
      "constant": false,
      "inputs": [
        {
          "name": "_address",
          "type": "address"
        }
      ],
      "name": "revokeApproval",
      "outputs": [],
      "payable": false,
      "stateMutability": "nonpayable",
      "type": "function"
    },
    {
      "constant": true,
      "inputs": [],
      "name": "symbol",
      "outputs": [
        {
          "name": "",
          "type": "string"
        }
      ],
      "payable": false,
      "stateMutability": "view",
      "type": "function"
    },
    {
      "constant": true,
      "inputs": [],
      "name": "investmentLimitAggregate",
      "outputs": [
        {
          "name": "",
          "type": "uint256"
        }
      ],
      "payable": false,
      "stateMutability": "view",
      "type": "function"
    },
    {
      "constant": true,
      "inputs": [],
      "name": "investmentLimitAddress",
      "outputs": [
        {
          "name": "",
          "type": "uint256"
        }
      ],
      "payable": false,
      "stateMutability": "view",
      "type": "function"
    },
    {
      "constant": true,
      "inputs": [
        {
          "name": "",
          "type": "uint256"
        }
      ],
      "name": "DIDHoldersArray",
      "outputs": [
        {
          "name": "",
          "type": "address"
        }
      ],
      "payable": false,
      "stateMutability": "view",
      "type": "function"
    },
    {
      "constant": true,
      "inputs": [
        {
          "name": "",
          "type": "address"
        }
      ],
      "name": "DIDHolders",
      "outputs": [
        {
          "name": "balance",
          "type": "uint256"
        },
        {
          "name": "netContributionsDID",
          "type": "uint256"
        },
        {
          "name": "DIDHoldersIndex",
          "type": "uint256"
        },
        {
          "name": "weiInvested",
          "type": "uint256"
        },
        {
          "name": "tasksCompleted",
          "type": "uint256"
        }
      ],
      "payable": false,
      "stateMutability": "view",
      "type": "function"
    },
    {
      "constant": true,
      "inputs": [
        {
          "name": "",
          "type": "address"
        }
      ],
      "name": "approved",
      "outputs": [
        {
          "name": "",
          "type": "bool"
        }
      ],
      "payable": false,
      "stateMutability": "view",
      "type": "function"
    },
    {
      "constant": false,
      "inputs": [
        {
          "name": "_address",
          "type": "address"
        }
      ],
      "name": "approve",
      "outputs": [],
      "payable": false,
      "stateMutability": "nonpayable",
      "type": "function"
    },
    {
      "inputs": [],
      "payable": false,
      "stateMutability": "nonpayable",
      "type": "constructor"
    },
    {
      "anonymous": false,
      "inputs": [
        {
          "indexed": true,
          "name": "to",
          "type": "address"
        },
        {
          "indexed": false,
          "name": "numDID",
          "type": "uint256"
        }
      ],
      "name": "LogIssueDID",
      "type": "event"
    },
    {
      "anonymous": false,
      "inputs": [
        {
          "indexed": true,
          "name": "to",
          "type": "address"
        },
        {
          "indexed": false,
          "name": "numDID",
          "type": "uint256"
        }
      ],
      "name": "LogDecrementDID",
      "type": "event"
    },
    {
      "anonymous": false,
      "inputs": [
        {
          "indexed": true,
          "name": "to",
          "type": "address"
        },
        {
          "indexed": false,
          "name": "numDIDFromContributions",
          "type": "uint256"
        }
      ],
      "name": "LogDecrementDIDFromContributions",
      "type": "event"
    },
    {
      "anonymous": false,
      "inputs": [
        {
          "indexed": true,
          "name": "to",
          "type": "address"
        },
        {
          "indexed": false,
          "name": "numDID",
          "type": "uint256"
        }
      ],
      "name": "LogExchangeDIDForEther",
      "type": "event"
    },
    {
      "anonymous": false,
      "inputs": [
        {
          "indexed": true,
          "name": "to",
          "type": "address"
        },
        {
          "indexed": false,
          "name": "numWei",
          "type": "uint256"
        }
      ],
      "name": "LogInvestEtherForDID",
      "type": "event"
    },
    {
      "constant": false,
      "inputs": [
        {
          "name": "_recipient",
          "type": "address"
        },
        {
          "name": "_numDID",
          "type": "uint256"
        }
      ],
      "name": "issueDID",
      "outputs": [
        {
          "name": "",
          "type": "bool"
        }
      ],
      "payable": false,
      "stateMutability": "nonpayable",
      "type": "function"
    },
    {
      "constant": false,
      "inputs": [
        {
          "name": "_address",
          "type": "address"
        },
        {
          "name": "_numDID",
          "type": "uint256"
        }
      ],
      "name": "decrementDID",
      "outputs": [
        {
          "name": "",
          "type": "uint256"
        }
      ],
      "payable": false,
      "stateMutability": "nonpayable",
      "type": "function"
    },
    {
      "constant": false,
      "inputs": [
        {
          "name": "_address",
          "type": "address"
        },
        {
          "name": "_numDIDFromContributions",
          "type": "uint256"
        }
      ],
      "name": "decrementDIDFromContributions",
      "outputs": [
        {
          "name": "",
          "type": "uint256"
        }
      ],
      "payable": false,
      "stateMutability": "nonpayable",
      "type": "function"
    },
    {
      "constant": false,
      "inputs": [
        {
          "name": "_numDIDToExchange",
          "type": "uint256"
        }
      ],
      "name": "exchangeDIDForEther",
      "outputs": [
        {
          "name": "",
          "type": "uint256"
        }
      ],
      "payable": false,
      "stateMutability": "nonpayable",
      "type": "function"
    },
    {
      "constant": false,
      "inputs": [],
      "name": "investEtherForDID",
      "outputs": [
        {
          "name": "",
          "type": "uint256"
        }
      ],
      "payable": true,
      "stateMutability": "payable",
      "type": "function"
    },
    {
      "constant": false,
      "inputs": [
        {
          "name": "_contributor",
          "type": "address"
        },
        {
          "name": "_reward",
          "type": "uint256"
        }
      ],
      "name": "incrementDIDFromContributions",
      "outputs": [],
      "payable": false,
      "stateMutability": "nonpayable",
      "type": "function"
    },
    {
      "constant": false,
      "inputs": [
        {
          "name": "_contributor",
          "type": "address"
        }
      ],
      "name": "incrementTasksCompleted",
      "outputs": [
        {
          "name": "",
          "type": "bool"
        }
      ],
      "payable": false,
      "stateMutability": "nonpayable",
      "type": "function"
    },
    {
      "constant": true,
      "inputs": [
        {
          "name": "_address",
          "type": "address"
        }
      ],
      "name": "pctDIDOwned",
      "outputs": [
        {
          "name": "",
          "type": "uint256"
        }
      ],
      "payable": false,
      "stateMutability": "view",
      "type": "function"
    },
    {
      "constant": true,
      "inputs": [
        {
          "name": "_contributor",
          "type": "address"
        }
      ],
      "name": "getNumWeiAddressMayInvest",
      "outputs": [
        {
          "name": "",
          "type": "uint256"
        }
      ],
      "payable": false,
      "stateMutability": "view",
      "type": "function"
    },
    {
      "constant": false,
      "inputs": [
        {
          "name": "_contributor",
          "type": "address"
        },
        {
          "name": "_reward",
          "type": "uint256"
        }
      ],
      "name": "rewardContributor",
      "outputs": [
        {
          "name": "",
          "type": "bool"
        }
      ],
      "payable": false,
      "stateMutability": "nonpayable",
      "type": "function"
    },
    {
      "constant": true,
      "inputs": [],
      "name": "getWeiAggregateMayInvest",
      "outputs": [
        {
          "name": "",
          "type": "uint256"
        }
      ],
      "payable": false,
      "stateMutability": "view",
      "type": "function"
    },
    {
      "constant": true,
      "inputs": [],
      "name": "getNumDIDHolders",
      "outputs": [
        {
          "name": "",
          "type": "uint256"
        }
      ],
      "payable": false,
      "stateMutability": "view",
      "type": "function"
    },
    {
      "constant": true,
      "inputs": [
        {
          "name": "_address",
          "type": "address"
        }
      ],
      "name": "getAddressBalance",
      "outputs": [
        {
          "name": "",
          "type": "uint256"
        }
      ],
      "payable": false,
      "stateMutability": "view",
      "type": "function"
    },
    {
      "constant": true,
      "inputs": [
        {
          "name": "_address",
          "type": "address"
        }
      ],
      "name": "getNumContributionsDID",
      "outputs": [
        {
          "name": "",
          "type": "uint256"
        }
      ],
      "payable": false,
      "stateMutability": "view",
      "type": "function"
    },
    {
      "constant": true,
      "inputs": [
        {
          "name": "_address",
          "type": "address"
        }
      ],
      "name": "getWeiInvested",
      "outputs": [
        {
          "name": "",
          "type": "uint256"
        }
      ],
      "payable": false,
      "stateMutability": "view",
      "type": "function"
    },
    {
      "constant": true,
      "inputs": [
        {
          "name": "msgValue",
          "type": "uint256"
        },
        {
          "name": "DIDPerEther",
          "type": "uint256"
        }
      ],
      "name": "calculateNumDIDToIssue",
      "outputs": [
        {
          "name": "",
          "type": "uint256"
        }
      ],
      "payable": false,
      "stateMutability": "pure",
      "type": "function"
    },
    {
      "constant": true,
      "inputs": [
        {
          "name": "_numDIDToExchange",
          "type": "uint256"
        },
        {
          "name": "_DIDPerEther",
          "type": "uint256"
        }
      ],
      "name": "calculateNumWeiToIssue",
      "outputs": [
        {
          "name": "",
          "type": "uint256"
        }
      ],
      "payable": false,
      "stateMutability": "pure",
      "type": "function"
    },
    {
      "constant": false,
      "inputs": [
        {
          "name": "holder",
          "type": "address"
        }
      ],
      "name": "deleteDIDHolder",
      "outputs": [],
      "payable": false,
      "stateMutability": "nonpayable",
      "type": "function"
    },
    {
      "constant": false,
      "inputs": [
        {
          "name": "_distenseAddress",
          "type": "address"
        }
      ],
      "name": "setDistenseAddress",
      "outputs": [],
      "payable": false,
      "stateMutability": "nonpayable",
      "type": "function"
    }
  ],
  "bytecode": "0x608060405269152d02c7e14af680000060035568056bc75e2d63100000600455670de0b6b3a76400006005553480156200003857600080fd5b503360009081526020818152604091829020805460ff191660011790558151808301909252600c8083527f44697374656e7365204449440000000000000000000000000000000000000000929091019182526200009891600691620000f8565b506040805180820190915260038082527f44494400000000000000000000000000000000000000000000000000000000006020909201918252620000df91600791620000f8565b5060006009556008805460ff191660121790556200019d565b828054600181600116156101000203166002900490600052602060002090601f016020900481019282601f106200013b57805160ff19168380011785556200016b565b828001600101855582156200016b579182015b828111156200016b5782518255916020019190600101906200014e565b50620001799291506200017d565b5090565b6200019a91905b8082111562000179576000815560010162000184565b90565b6118b080620001ad6000396000f3fe6080604052600436106101e35760003560e01c80638800495011610102578063c7560f4611610095578063daea85c511610064578063daea85c514610728578063dc2b32e61461075b578063f67746601461078e578063fdf31b39146107be576101e3565b8063c7560f4614610634578063cb1e4e441461065e578063d7b16d9114610697578063d8b964e6146106f5576101e3565b8063a0d229d8116100d1578063a0d229d8146105cf578063a723761a146105e4578063bad0d4f1146105ec578063c621f96e14610601576101e3565b8063880049501461053f578063915555591461057257806395d89b41146105a55780639ac97e84146105ba576101e3565b8063313ce5671161017a5780636168ba3c116101495780636168ba3c1461048e5780636a2875c1146104a357806385ca017a146104dc57806387b3084514610515576101e3565b8063313ce567146103c457806335046722146103ef5780633b15a39814610422578063484685b01461045b576101e3565b806312967182116101b6578063129671821461033257806318160ddd1461036557806325078bc41461037a5780632a4caf671461038f576101e3565b80630261a403146101e857806306fdde03146102355780630afdbaed146102bf57806311c09100146102f0575b600080fd5b3480156101f457600080fd5b506102216004803603604081101561020b57600080fd5b506001600160a01b0381351690602001356107f1565b604080519115158252519081900360200190f35b34801561024157600080fd5b5061024a610946565b6040805160208082528351818301528351919283929083019185019080838360005b8381101561028457818101518382015260200161026c565b50505050905090810190601f1680156102b15780820380516001836020036101000a031916815260200191505b509250505060405180910390f35b3480156102cb57600080fd5b506102d46109d4565b604080516001600160a01b039092168252519081900360200190f35b3480156102fc57600080fd5b506103206004803603604081101561031357600080fd5b50803590602001356109e3565b60408051918252519081900360200190f35b34801561033e57600080fd5b506103206004803603602081101561035557600080fd5b50356001600160a01b0316610a13565b34801561037157600080fd5b50610320610a31565b34801561038657600080fd5b50610320610a37565b34801561039b57600080fd5b506103c2600480360360208110156103b257600080fd5b50356001600160a01b0316610a3d565b005b3480156103d057600080fd5b506103d9610a7b565b6040805160ff9092168252519081900360200190f35b3480156103fb57600080fd5b506103206004803603602081101561041257600080fd5b50356001600160a01b0316610a84565b34801561042e57600080fd5b506102216004803603604081101561044557600080fd5b506001600160a01b038135169060200135610a9f565b34801561046757600080fd5b506103c26004803603602081101561047e57600080fd5b50356001600160a01b0316610b04565b34801561049a57600080fd5b50610320610b54565b3480156104af57600080fd5b506103c2600480360360408110156104c657600080fd5b506001600160a01b038135169060200135610b6a565b3480156104e857600080fd5b50610320600480360360408110156104ff57600080fd5b506001600160a01b038135169060200135610bec565b34801561052157600080fd5b506103206004803603602081101561053857600080fd5b5035610d2a565b34801561054b57600080fd5b506103206004803603602081101561056257600080fd5b50356001600160a01b0316610f92565b34801561057e57600080fd5b506103206004803603602081101561059557600080fd5b50356001600160a01b031661103d565b3480156105b157600080fd5b5061024a6111a1565b3480156105c657600080fd5b506103206111fc565b3480156105db57600080fd5b50610320611202565b610320611208565b3480156105f857600080fd5b50610320611450565b34801561060d57600080fd5b506103c26004803603602081101561062457600080fd5b50356001600160a01b0316611456565b34801561064057600080fd5b506102d46004803603602081101561065757600080fd5b5035611546565b34801561066a57600080fd5b506103206004803603604081101561068157600080fd5b506001600160a01b03813516906020013561156d565b3480156106a357600080fd5b506106ca600480360360208110156106ba57600080fd5b50356001600160a01b03166116b4565b6040805195865260208601949094528484019290925260608401526080830152519081900360a00190f35b34801561070157600080fd5b506102216004803603602081101561071857600080fd5b50356001600160a01b03166116e3565b34801561073457600080fd5b506103c26004803603602081101561074b57600080fd5b50356001600160a01b03166116f8565b34801561076757600080fd5b506103206004803603602081101561077e57600080fd5b50356001600160a01b031661174b565b34801561079a57600080fd5b50610320600480360360408110156107b157600080fd5b5080359060200135611769565b3480156107ca57600080fd5b50610221600480360360208110156107e157600080fd5b50356001600160a01b0316611775565b3360009081526020819052604081205460ff1661080d57600080fd5b6001600160a01b03831661082057600080fd5b6000821161082d57600080fd5b633b9aca00821061083d57600080fd5b81670de0b6b3a7640000029150610856600954836117b9565b6009556001600160a01b0383166000908152600a602052604090205461087c81846117b9565b6001600160a01b0385166000908152600a60205260409020908155600201546108fb57600180548082019091557fb10e2d527612073b26eecdfd717e6a320cf44b4afac2b0732d9fcbe2b7fa0cf6810180546001600160a01b0319166001600160a01b0387169081179091556000908152600a60205260409020600201555b6040805184815290516001600160a01b038616917f3433529aaca741f54b3397d6ef2d588bb92ecd0d87c4c41db2f379bfe5c168f4919081900360200190a260019150505b92915050565b6006805460408051602060026001851615610100026000190190941693909304601f810184900484028201840190925281815292918301828280156109cc5780601f106109a1576101008083540402835291602001916109cc565b820191906000526020600020905b8154815290600101906020018083116109af57829003601f168201915b505050505081565b6002546001600160a01b031681565b6000633b9aca0083106109f557600080fd5b82670de0b6b3a7640000029250610a0c83836117c8565b9392505050565b6001600160a01b03166000908152600a602052604090206001015490565b60095481565b60055481565b3360009081526020819052604090205460ff16610a5957600080fd5b600280546001600160a01b0319166001600160a01b0392909216919091179055565b60085460ff1681565b6001600160a01b03166000908152600a602052604090205490565b3360009081526020819052604081205460ff16610abb57600080fd5b6000610acf83670de0b6b3a76400006117c8565b90506000610add85836107f1565b90508015610aef57610aef8583610b6a565b610af885611775565b50600195945050505050565b3360009081526020819052604090205460ff16610b2057600080fd5b6001600160a01b038116610b3357600080fd5b6001600160a01b03166000908152602081905260409020805460ff19169055565b6000610b646003546005546117dd565b90505b90565b3360009081526020819052604090205460ff16610b8657600080fd5b633b9aca008110610b9657600080fd5b6001600160a01b0382166000908152600a6020526040902060010154670de0b6b3a7640000820290610bc890826117b9565b6001600160a01b039093166000908152600a60205260409020600101929092555050565b3360009081526020819052604081205460ff16610c0857600080fd5b6001600160a01b038316610c1b57600080fd5b60008211610c2857600080fd5b6001600160a01b0383166000908152600a6020526040812060010154670de0b6b3a764000084029190610c5b90836117dd565b1015610c6657600080fd5b6000610c74600954836117dd565b1015610c7f57600080fd5b610c8b600954826117dd565b6009556001600160a01b0384166000908152600a6020526040902060010154610cb490826117dd565b6001600160a01b0385166000818152600a6020908152604091829020600101939093558051848152905191927f73f1a0464d2f56620e42157567cc0d1707a364d2b1cbacf904bd85fbfd3761df92918290030190a25050506001600160a01b03166000908152600a602052604090206001015490565b6000670de0b6b3a7640000820281610d4133610a13565b905081811015610d5057600080fd5b60025460408051600160e11b631139dd7102815290516001600160a01b03909216916000918391638fc6ad2d918391632273bae291600480820192602092909190829003018186803b158015610da557600080fd5b505afa158015610db9573d6000803e3d6000fd5b505050506040513d6020811015610dcf57600080fd5b50516040805163ffffffff841660e01b81526004810192909252516024808301926020929190829003018186803b158015610e0957600080fd5b505afa158015610e1d573d6000803e3d6000fd5b505050506040513d6020811015610e3357600080fd5b50516009549091508410610e4657600080fd5b6000610e5285836109e3565b9050308031821115610e9857604051600160e51b62461bcd02815260040180806020018281038252602a81526020018061185b602a913960400191505060405180910390fd5b336000908152600a6020526040902054610eb290876117dd565b336000908152600a6020526040902090815560010154610ed290876117dd565b336000908152600a6020526040902060010155600954610ef290876117dd565b600955604051339083156108fc029084906000818181858888f19350505050158015610f22573d6000803e3d6000fd5b50336000908152600a6020526040902054610f4057610f4033611472565b60408051878152905133917feb7d31df09103642237866b5fa5946a266fda42585c7ba30a006a40e4e478d3f919081900360200190a25050336000908152600a60205260409020549695505050505050565b6001600160a01b0381166000908152600a60209081526040808320546009548251600160e11b62160d4f0281526004810192909252602482015260146044820152905173__SafeMath______________________________92622c1a9e9260648082019391829003018186803b15801561100b57600080fd5b505af415801561101f573d6000803e3d6000fd5b505050506040513d602081101561103557600080fd5b505192915050565b6001600160a01b0381166000908152600a60205260408120600101548061106357600080fd5b6004546001600160a01b0384166000908152600a6020526040812060030154909161108d916117dd565b90506000811161109c57600080fd5b60025460408051600160e11b631139dd7102815290516001600160a01b03909216916000918391638fc6ad2d918391632273bae291600480820192602092909190829003018186803b1580156110f157600080fd5b505afa158015611105573d6000803e3d6000fd5b505050506040513d602081101561111b57600080fd5b50516040805163ffffffff841660e01b81526004810192909252516024808301926020929190829003018186803b15801561115557600080fd5b505afa158015611169573d6000803e3d6000fd5b505050506040513d602081101561117f57600080fd5b5051905080670de0b6b3a764000085028161119657fe5b049695505050505050565b6007805460408051602060026001851615610100026000190190941693909304601f810184900484028201840190925281815292918301828280156109cc5780601f106109a1576101008083540402835291602001916109cc565b60015490565b60035481565b6000346112143361103d565b101561121f57600080fd5b6003546005541061122f57600080fd5b60025460408051600160e11b631139dd7102815290516001600160a01b0390921691600091611325918491638fc6ad2d918391632273bae2916004808301926020929190829003018186803b15801561128757600080fd5b505afa15801561129b573d6000803e3d6000fd5b505050506040513d60208110156112b157600080fd5b50516040805163ffffffff841660e01b81526004810192909252516024808301926020929190829003018186803b1580156112eb57600080fd5b505afa1580156112ff573d6000803e3d6000fd5b505050506040513d602081101561131557600080fd5b5051670de0b6b3a76400006117c8565b905060006113333483611769565b336000908152600a602052604090206001015490915081111561135557600080fd5b611361600954826117b9565b600955336000908152600a602052604090205461137e90826117b9565b336000908152600a602052604090209081556001015461139e90826117dd565b336000818152600a6020908152604091829020600181019490945560039093018054349081019091556005805490910190558051848152905191927f3433529aaca741f54b3397d6ef2d588bb92ecd0d87c4c41db2f379bfe5c168f492918290030190a260408051348152905133917f71894dba69eac3a3461302b16631257b4580fbc7be61f1d4b0e988845e6400f0919081900360200190a25050336000908152600a602052604090205491505090565b60045481565b3360009081526020819052604090205460ff1661147257600080fd5b600180541115611543576001805460009190600019810190811061149257fe5b60009182526020808320909101546001600160a01b038581168452600a9092526040909220600201546001805492909316935083929181106114d057fe5b600091825260209091200180546001600160a01b0319166001600160a01b0392909216919091179055600180549061150c906000198301611813565b50506001600160a01b0381166000908152600a60205260408120818155600181018290556002810182905560038101829055600401555b50565b6001818154811061155357fe5b6000918252602090912001546001600160a01b0316905081565b3360009081526020819052604081205460ff1661158957600080fd5b6001600160a01b03831661159c57600080fd5b600082116115a957600080fd5b6001600160a01b0383166000908152600a6020526040812054670de0b6b3a7640000840291906115d990836117dd565b10156115e457600080fd5b60006115f2600954836117dd565b10156115fd57600080fd5b611609600954826117dd565b6009556001600160a01b0384166000908152600a602052604090205461162f90826117dd565b6001600160a01b0385166000908152600a602052604090208190556116575761165784611472565b6040805182815290516001600160a01b038616917f9fa46c80453c295693dfa0974d48b43bfdb58bb909cedd3af0ba93589a3332c1919081900360200190a25050506001600160a01b03166000908152600a602052604090205490565b600a60205260009081526040902080546001820154600283015460038401546004909401549293919290919085565b60006020819052908152604090205460ff1681565b3360009081526020819052604090205460ff1661171457600080fd5b6001600160a01b03811661172757600080fd5b6001600160a01b03166000908152602081905260409020805460ff19166001179055565b6001600160a01b03166000908152600a602052604090206003015490565b6000610a0c83836117ef565b3360009081526020819052604081205460ff1661179157600080fd5b506001600160a01b03166000908152600a602052604090206004018054600190810190915590565b600082820183811015610a0c57fe5b6000808284816117d457fe5b04949350505050565b6000828211156117e957fe5b50900390565b6000826117fe57506000610940565b8282028284828161180b57fe5b0414610a0c57fe5b8154818355818111156118375760008381526020902061183791810190830161183c565b505050565b610b6791905b808211156118565760008155600101611842565b509056fe444944546f6b656e20636f6e7472616374206d75737420686176652073756666696369656e7420776569a165627a7a723058203f99b5396f502582435856c7f5208c10b5dfa76aa4c53b3f277f1425b26f00060029",
  "source": "pragma solidity ^0.5.8;\n\nimport './lib/Approvable.sol';\nimport './Distense.sol';\nimport './lib/SafeMath.sol';\nimport { SharedStructs } from \"./lib/SharedStructs.sol\";\n\n\ncontract DIDToken is Approvable {\n\n    using SafeMath for uint256;\n\n    event LogIssueDID(address indexed to, uint256 numDID);\n    event LogDecrementDID(address indexed to, uint256 numDID);\n    event LogDecrementDIDFromContributions(address indexed to, uint256 numDIDFromContributions);\n    event LogExchangeDIDForEther(address indexed to, uint256 numDID);\n    event LogInvestEtherForDID(address indexed to, uint256 numWei);\n\n    address[] public DIDHoldersArray;\n\n    address public DistenseAddress;\n\n    uint256 public investmentLimitAggregate  = 100000 ether;  // This is the max DID all addresses can receive from depositing ether\n    uint256 public investmentLimitAddress = 100 ether;  // This is the max DID any address can receive from Ether deposit\n    uint256 public investedAggregate = 1 ether;\n\n    string public name;\n    string public symbol;\n    uint8 public decimals;\n    uint256 public totalSupply;\n\n    mapping (address => SharedStructs.DIDHolder) public DIDHolders;\n\n    constructor () public {\n        name = \"Distense DID\";\n        symbol = \"DID\";\n        totalSupply = 0;\n        decimals = 18;\n    }\n\n    function issueDID(address _recipient, uint256 _numDID) public onlyApproved returns (bool) {\n        require(_recipient != address(0));\n        require(_numDID > 0);\n        require(_numDID < 1000000000);\n\n        _numDID = _numDID * 1 ether;\n        totalSupply = SafeMath.add(totalSupply, _numDID);\n        \n        uint256 balance = DIDHolders[_recipient].balance;\n        DIDHolders[_recipient].balance = SafeMath.add(balance, _numDID);\n\n        //  If is a new DIDHolder, set their position in DIDHoldersArray\n        if (DIDHolders[_recipient].DIDHoldersIndex == 0) {\n            uint256 index = DIDHoldersArray.push(_recipient) - 1;\n            DIDHolders[_recipient].DIDHoldersIndex = index;\n        }\n\n        emit LogIssueDID(_recipient, _numDID);\n\n        return true;\n    }\n\n    function decrementDID(address _address, uint256 _numDID) external onlyApproved returns (uint256) {\n        require(_address != address(0));\n        require(_numDID > 0);\n\n        uint256 numDID = _numDID * 1 ether;\n        require(SafeMath.sub(DIDHolders[_address].balance, numDID) >= 0);\n        require(SafeMath.sub(totalSupply, numDID ) >= 0);\n\n        totalSupply = SafeMath.sub(totalSupply, numDID);\n        DIDHolders[_address].balance = SafeMath.sub(DIDHolders[_address].balance, numDID);\n\n        //  If DIDHolder has exchanged all of their DID remove from DIDHoldersArray\n        //  For minimizing blockchain size and later client query performance\n        if (DIDHolders[_address].balance == 0) {\n            deleteDIDHolderWhenBalanceZero(_address);\n        }\n\n        emit LogDecrementDID(_address, numDID);\n\n        return DIDHolders[_address].balance;\n    }\n\n    function decrementDIDFromContributions(address _address, uint256 _numDIDFromContributions) external onlyApproved returns (uint256) {\n        require(_address != address(0));\n        require(_numDIDFromContributions > 0);\n\n        uint256 numDIDFromContributions = _numDIDFromContributions * 1 ether;\n        require(SafeMath.sub(DIDHolders[_address].netContributionsDID, numDIDFromContributions) >= 0);\n        require(SafeMath.sub(totalSupply, numDIDFromContributions) >= 0);\n\n        totalSupply = SafeMath.sub(totalSupply, numDIDFromContributions);\n        DIDHolders[_address].netContributionsDID = SafeMath.sub(DIDHolders[_address].netContributionsDID, numDIDFromContributions);\n\n        emit LogDecrementDIDFromContributions(_address, numDIDFromContributions);\n\n        return DIDHolders[_address].netContributionsDID;\n    }\n\n    function exchangeDIDForEther(uint256 _numDIDToExchange)\n        external\n    returns (uint256) {\n\n        uint256 numDIDToExchange = _numDIDToExchange * 1 ether;\n        uint256 netContributionsDID = getNumContributionsDID(msg.sender);\n        require(netContributionsDID >= numDIDToExchange);\n\n        Distense distense = Distense(DistenseAddress);\n        uint256 DIDPerEther = distense.getParameterValueByTitle(distense.didPerEtherParameterTitle());\n\n        require(numDIDToExchange < totalSupply);\n\n        uint256 numWeiToIssue = calculateNumWeiToIssue(numDIDToExchange, DIDPerEther);\n        address contractAddress = address(this);\n        require(contractAddress.balance >= numWeiToIssue, \"DIDToken contract must have sufficient wei\");\n\n        //  Adjust number of DID owned first\n        DIDHolders[msg.sender].balance = SafeMath.sub(DIDHolders[msg.sender].balance, numDIDToExchange);\n        DIDHolders[msg.sender].netContributionsDID = SafeMath.sub(DIDHolders[msg.sender].netContributionsDID, numDIDToExchange);\n        totalSupply = SafeMath.sub(totalSupply, numDIDToExchange);\n\n        msg.sender.transfer(numWeiToIssue);\n\n        if (DIDHolders[msg.sender].balance == 0) {\n            deleteDIDHolderWhenBalanceZero(msg.sender);\n        }\n        emit LogExchangeDIDForEther(msg.sender, numDIDToExchange);\n\n        return DIDHolders[msg.sender].balance;\n    }\n\n    function investEtherForDID() external payable returns (uint256) {\n        require(getNumWeiAddressMayInvest(msg.sender) >= msg.value);\n        require(investedAggregate < investmentLimitAggregate);\n\n        Distense distense = Distense(DistenseAddress);\n        uint256 DIDPerEther = SafeMath.div(distense.getParameterValueByTitle(distense.didPerEtherParameterTitle()), 1 ether);\n\n        uint256 numDIDToIssue = calculateNumDIDToIssue(msg.value, DIDPerEther);\n        require(DIDHolders[msg.sender].netContributionsDID >= numDIDToIssue);\n        totalSupply = SafeMath.add(totalSupply, numDIDToIssue);\n        DIDHolders[msg.sender].balance = SafeMath.add(DIDHolders[msg.sender].balance, numDIDToIssue);\n        DIDHolders[msg.sender].netContributionsDID = SafeMath.sub(DIDHolders[msg.sender].netContributionsDID, numDIDToIssue);\n\n        DIDHolders[msg.sender].weiInvested += msg.value;\n        investedAggregate = investedAggregate + msg.value;\n\n        emit LogIssueDID(msg.sender, numDIDToIssue);\n        emit LogInvestEtherForDID(msg.sender, msg.value);\n\n        return DIDHolders[msg.sender].balance;\n    }\n\n    function incrementDIDFromContributions(address _contributor, uint256 _reward) onlyApproved public {\n        require(_reward < 1000000000);\n        uint256 weiReward = _reward * 1 ether;\n        DIDHolders[_contributor].netContributionsDID = SafeMath.add(DIDHolders[_contributor].netContributionsDID, weiReward);\n    }\n\n    function incrementTasksCompleted(address _contributor) onlyApproved public returns (bool) {\n        DIDHolders[_contributor].tasksCompleted++;\n        return true;\n    }\n\n    function pctDIDOwned(address _address) external view returns (uint256) {\n        return SafeMath.percent(DIDHolders[_address].balance, totalSupply, 20);\n    }\n\n    function getNumWeiAddressMayInvest(address _contributor) public view returns (uint256) {\n\n        uint256 DIDFromContributions = DIDHolders[_contributor].netContributionsDID;\n        require(DIDFromContributions > 0);\n        uint256 netUninvestedEther = SafeMath.sub(investmentLimitAddress, DIDHolders[_contributor].weiInvested);\n        require(netUninvestedEther > 0);\n\n        Distense distense = Distense(DistenseAddress);\n        uint256 DIDPerEther = distense.getParameterValueByTitle(distense.didPerEtherParameterTitle());\n\n        return (DIDFromContributions * 1 ether) / DIDPerEther;\n    }\n\n    function rewardContributor(address _contributor, uint256 _reward) external onlyApproved returns (bool) {\n        uint256 reward = SafeMath.div(_reward, 1 ether);\n        bool issued = issueDID(_contributor, reward);\n        if (issued) incrementDIDFromContributions(_contributor, reward);\n        incrementTasksCompleted(_contributor);\n        return true;\n    }\n\n    function getWeiAggregateMayInvest() public view returns (uint256) {\n        return SafeMath.sub(investmentLimitAggregate, investedAggregate);\n    }\n\n    function getNumDIDHolders() external view returns (uint256) {\n        return DIDHoldersArray.length;\n    }\n\n    function getAddressBalance(address _address) public view returns (uint256) {\n        return DIDHolders[_address].balance;\n    }\n\n    function getNumContributionsDID(address _address) public view returns (uint256) {\n        return DIDHolders[_address].netContributionsDID;\n    }\n\n    function getWeiInvested(address _address) public view returns (uint256) {\n        return DIDHolders[_address].weiInvested;\n    }\n\n    function calculateNumDIDToIssue(uint256 msgValue, uint256 DIDPerEther) public pure returns (uint256) {\n        return SafeMath.mul(msgValue, DIDPerEther);\n    }\n\n    function calculateNumWeiToIssue(uint256 _numDIDToExchange, uint256 _DIDPerEther) public pure returns (uint256) {\n        require(_numDIDToExchange < 1000000000);\n        _numDIDToExchange = _numDIDToExchange * 1 ether;\n        return SafeMath.div(_numDIDToExchange, _DIDPerEther);\n    }\n\n    function deleteDIDHolderWhenBalanceZero(address holder) internal {\n        if (DIDHoldersArray.length > 1) {\n            address lastElement = DIDHoldersArray[DIDHoldersArray.length - 1];\n            DIDHoldersArray[DIDHolders[holder].DIDHoldersIndex] = lastElement;\n            DIDHoldersArray.length--;\n            delete DIDHolders[holder];\n        }\n    }\n\n    function deleteDIDHolder(address holder) public onlyApproved {\n        if (DIDHoldersArray.length > 1) {\n            address lastElement = DIDHoldersArray[DIDHoldersArray.length - 1];\n            DIDHoldersArray[DIDHolders[holder].DIDHoldersIndex] = lastElement;\n            DIDHoldersArray.length--;\n            delete DIDHolders[holder];\n        }\n    }\n\n    function setDistenseAddress(address _distenseAddress) onlyApproved public  {\n        DistenseAddress = _distenseAddress;\n    }\n\n}\n",
  "sourcePath": "/Users/john/distense-contracts/contracts/DIDToken.sol",
  "compiler": {
    "name": "solc",
    "version": "0.5.8+commit.23d335f2.Emscripten.clang"
  },
  "schemaVersion": "3.0.11",
  "updatedAt": "2019-08-01T21:52:25.317Z",
  "devdoc": {
    "methods": {}
  },
  "userdoc": {
    "methods": {}
  }
}