{
  "contractName": "PullRequests",
  "abi": [
    {
      "constant": true,
      "inputs": [],
      "name": "TasksAddress",
      "outputs": [
        {
          "name": "",
          "type": "address"
        }
      ],
      "payable": false,
      "stateMutability": "view",
      "type": "function"
    },
    {
      "constant": true,
      "inputs": [],
      "name": "DistenseAddress",
      "outputs": [
        {
          "name": "",
          "type": "address"
        }
      ],
      "payable": false,
      "stateMutability": "view",
      "type": "function"
    },
    {
      "constant": false,
      "inputs": [
        {
          "name": "_address",
          "type": "address"
        }
      ],
      "name": "revokeApproval",
      "outputs": [],
      "payable": false,
      "stateMutability": "nonpayable",
      "type": "function"
    },
    {
      "constant": true,
      "inputs": [
        {
          "name": "",
          "type": "uint256"
        }
      ],
      "name": "pullRequestIds",
      "outputs": [
        {
          "name": "",
          "type": "bytes32"
        }
      ],
      "payable": false,
      "stateMutability": "view",
      "type": "function"
    },
    {
      "constant": true,
      "inputs": [],
      "name": "DIDTokenAddress",
      "outputs": [
        {
          "name": "",
          "type": "address"
        }
      ],
      "payable": false,
      "stateMutability": "view",
      "type": "function"
    },
    {
      "constant": true,
      "inputs": [
        {
          "name": "",
          "type": "address"
        }
      ],
      "name": "approved",
      "outputs": [
        {
          "name": "",
          "type": "bool"
        }
      ],
      "payable": false,
      "stateMutability": "view",
      "type": "function"
    },
    {
      "constant": false,
      "inputs": [
        {
          "name": "_address",
          "type": "address"
        }
      ],
      "name": "approve",
      "outputs": [],
      "payable": false,
      "stateMutability": "nonpayable",
      "type": "function"
    },
    {
      "inputs": [],
      "payable": false,
      "stateMutability": "nonpayable",
      "type": "constructor"
    },
    {
      "anonymous": false,
      "inputs": [
        {
          "indexed": false,
          "name": "_prId",
          "type": "bytes32"
        },
        {
          "indexed": false,
          "name": "taskId",
          "type": "bytes32"
        },
        {
          "indexed": false,
          "name": "prNum",
          "type": "uint128"
        }
      ],
      "name": "LogAddPullRequest",
      "type": "event"
    },
    {
      "anonymous": false,
      "inputs": [
        {
          "indexed": false,
          "name": "_prId",
          "type": "bytes32"
        },
        {
          "indexed": false,
          "name": "pctDIDApproved",
          "type": "uint256"
        }
      ],
      "name": "LogPullRequestApprovalVote",
      "type": "event"
    },
    {
      "anonymous": false,
      "inputs": [
        {
          "indexed": false,
          "name": "_prId",
          "type": "bytes32"
        },
        {
          "indexed": false,
          "name": "taskId",
          "type": "bytes32"
        },
        {
          "indexed": false,
          "name": "prNum",
          "type": "uint128"
        }
      ],
      "name": "LogRewardPullRequest",
      "type": "event"
    },
    {
      "constant": false,
      "inputs": [
        {
          "name": "_prId",
          "type": "bytes32"
        },
        {
          "name": "_taskId",
          "type": "bytes32"
        },
        {
          "name": "_prNum",
          "type": "uint128"
        }
      ],
      "name": "addPullRequest",
      "outputs": [
        {
          "name": "",
          "type": "bool"
        }
      ],
      "payable": false,
      "stateMutability": "nonpayable",
      "type": "function"
    },
    {
      "constant": true,
      "inputs": [
        {
          "name": "_prId",
          "type": "bytes32"
        }
      ],
      "name": "getPullRequestById",
      "outputs": [
        {
          "name": "",
          "type": "address"
        },
        {
          "name": "",
          "type": "bytes32"
        },
        {
          "name": "",
          "type": "uint128"
        },
        {
          "name": "",
          "type": "uint256"
        }
      ],
      "payable": false,
      "stateMutability": "view",
      "type": "function"
    },
    {
      "constant": true,
      "inputs": [],
      "name": "getNumPullRequests",
      "outputs": [
        {
          "name": "",
          "type": "uint256"
        }
      ],
      "payable": false,
      "stateMutability": "view",
      "type": "function"
    },
    {
      "constant": false,
      "inputs": [
        {
          "name": "_prId",
          "type": "bytes32"
        }
      ],
      "name": "approvePullRequest",
      "outputs": [
        {
          "name": "",
          "type": "uint256"
        }
      ],
      "payable": false,
      "stateMutability": "nonpayable",
      "type": "function"
    },
    {
      "constant": false,
      "inputs": [
        {
          "name": "_DIDTokenAddress",
          "type": "address"
        }
      ],
      "name": "setDIDTokenAddress",
      "outputs": [],
      "payable": false,
      "stateMutability": "nonpayable",
      "type": "function"
    },
    {
      "constant": false,
      "inputs": [
        {
          "name": "_DistenseAddress",
          "type": "address"
        }
      ],
      "name": "setDistenseAddress",
      "outputs": [],
      "payable": false,
      "stateMutability": "nonpayable",
      "type": "function"
    },
    {
      "constant": false,
      "inputs": [
        {
          "name": "_TasksAddress",
          "type": "address"
        }
      ],
      "name": "setTasksAddress",
      "outputs": [],
      "payable": false,
      "stateMutability": "nonpayable",
      "type": "function"
    }
  ],
  "bytecode": "0x608060405234801561001057600080fd5b50336000908152602081905260409020805460ff19166001179055610f678061003a6000396000f3fe608060405234801561001057600080fd5b50600436106100ea5760003560e01c8063a01fdbef1161008c578063cf2fb7ca11610066578063cf2fb7ca1461027e578063d8b964e6146102a4578063daea85c5146102ca578063e71a5577146102f0576100ea565b8063a01fdbef14610204578063ac847d4914610221578063af692e0014610229576100ea565b80632a4caf67116100c85780632a4caf6714610143578063484685b014610169578063650ee0ff1461018f5780637caf59d9146101be576100ea565b8063072f630c146100ef5780630afdbaed14610113578063253caf941461011b575b600080fd5b6100f76102f8565b604080516001600160a01b039092168252519081900360200190f35b6100f7610307565b6101416004803603602081101561013157600080fd5b50356001600160a01b0316610316565b005b6101416004803603602081101561015957600080fd5b50356001600160a01b0316610354565b6101416004803603602081101561017f57600080fd5b50356001600160a01b0316610392565b6101ac600480360360208110156101a557600080fd5b50356103e2565b60408051918252519081900360200190f35b6101f0600480360360608110156101d457600080fd5b50803590602081013590604001356001600160801b0316610400565b604080519115158252519081900360200190f35b6101ac6004803603602081101561021a57600080fd5b50356104ca565b6100f7610a80565b6102466004803603602081101561023f57600080fd5b5035610a8f565b604080516001600160a01b03909516855260208501939093526001600160801b03909116838301526060830152519081900360800190f35b6101416004803603602081101561029457600080fd5b50356001600160a01b0316610afe565b6101f0600480360360208110156102ba57600080fd5b50356001600160a01b0316610b3c565b610141600480360360208110156102e057600080fd5b50356001600160a01b0316610b51565b6101ac610ba4565b6003546001600160a01b031681565b6002546001600160a01b031681565b3360009081526020819052604090205460ff1661033257600080fd5b600380546001600160a01b0319166001600160a01b0392909216919091179055565b3360009081526020819052604090205460ff1661037057600080fd5b600280546001600160a01b0319166001600160a01b0392909216919091179055565b3360009081526020819052604090205460ff166103ae57600080fd5b6001600160a01b0381166103c157600080fd5b6001600160a01b03166000908152602081905260409020805460ff19169055565b600481815481106103ef57fe5b600091825260209091200154905081565b600083815260056020908152604080832080546001600160a01b031916331781556001808201879055600290910180546001600160801b0387166fffffffffffffffffffffffffffffffff19909116811790915560048054928301815585527f8a35acfbc15ff81a39ae7d344fd709f28e8600b4aa8c65c6b64bfe7fe36bd19b909101879055815187815292830186905282820152517f1cb7fef23eb23bac1c82dc07555d40809aa3ecde37c0fd1d06481a512352c04e9181900360600190a15060019392505050565b60006104d582610baa565b15156001146104e357600080fd5b60006104ee83610e54565b60025460018054600087815260056020908152604080832033845260048082018452828520805460ff19169097179096558151600160e01b63e2f97c8d02815291519798506001600160a01b039687169794909616959492938793638fc6ad2d93859363e2f97c8d93818401939091829003018186803b15801561057157600080fd5b505afa158015610585573d6000803e3d6000fd5b505050506040513d602081101561059b57600080fd5b50516040805163ffffffff841660e01b81526004810192909252516024808301926020929190829003018186803b1580156105d557600080fd5b505afa1580156105e9573d6000803e3d6000fd5b505050506040513d60208110156105ff57600080fd5b505160408051600160e41b630880049502815233600482015290516001600160a01b038616916388004950916024808301926020929190829003018186803b15801561064a57600080fd5b505afa15801561065e573d6000803e3d6000fd5b505050506040513d602081101561067457600080fd5b5051116106f55760408051600160e41b630880049502815233600482015290516001600160a01b038516916388004950916024808301926020929190829003018186803b1580156106c457600080fd5b505afa1580156106d8573d6000803e3d6000fd5b505050506040513d60208110156106ee57600080fd5b50516107ce565b836001600160a01b0316638fc6ad2d856001600160a01b031663e2f97c8d6040518163ffffffff1660e01b815260040160206040518083038186803b15801561073d57600080fd5b505afa158015610751573d6000803e3d6000fd5b505050506040513d602081101561076757600080fd5b50516040805163ffffffff841660e01b81526004810192909252516024808301926020929190829003018186803b1580156107a157600080fd5b505afa1580156107b5573d6000803e3d6000fd5b505050506040513d60208110156107cb57600080fd5b50515b81019050836001600160a01b0316638fc6ad2d856001600160a01b03166314eb172c6040518163ffffffff1660e01b815260040160206040518083038186803b15801561081a57600080fd5b505afa15801561082e573d6000803e3d6000fd5b505050506040513d602081101561084457600080fd5b50516040805163ffffffff841660e01b81526004810192909252516024808301926020929190829003018186803b15801561087e57600080fd5b505afa158015610892573d6000803e3d6000fd5b505050506040513d60208110156108a857600080fd5b5051811115610a3257600354600183015460408051600160e01b63d30bf3230281526004810192909252516001600160a01b0390921691600091839163d30bf3239160248082019260209290919082900301818787803b15801561090b57600080fd5b505af115801561091f573d6000803e3d6000fd5b505050506040513d602081101561093557600080fd5b50519050600281600281111561094757fe5b1461095157600080fd5b60038401839055835460408051600160e31b630762b4730281526001600160a01b039283166004820152602481018a9052905191871691633b15a398916044808201926020929091908290030181600087803b1580156109b057600080fd5b505af11580156109c4573d6000803e3d6000fd5b505050506040513d60208110156109da57600080fd5b505060018401546002850154604080518c815260208101939093526001600160801b0390911682820152517f4027175c911e4ac813df71c7433aa237efa18e51adbe2f8deb2e21d5d1db81c69181900360600190a150505b600382015460408051898152602081019290925280517f38f90e6894903aa729dbd3b9fab7151d08066ab4be17eb5e695d541eb1fe73519281900390910190a1506003015495945050505050565b6001546001600160a01b031681565b600080600080610a9d610f14565b5050506000928352505060056020908152604091829020825160808101845281546001600160a01b0316808252600183015493820184905260028301546001600160801b031694820185905260039092015460609091018190529093919291565b3360009081526020819052604090205460ff16610b1a57600080fd5b600180546001600160a01b0319166001600160a01b0392909216919091179055565b60006020819052908152604090205460ff1681565b3360009081526020819052604090205460ff16610b6d57600080fd5b6001600160a01b038116610b8057600080fd5b6001600160a01b03166000908152602081905260409020805460ff19166001179055565b60045490565b600081815260056020908152604080832033845260040190915281205460ff1615610c1f5760408051600160e51b62461bcd02815260206004820152601e60248201527f766f74657220616c726561647920766f746564206f6e20746869732050520000604482015290519081900360640190fd5b6000828152600560205260409020546001600160a01b0316331415610c8e5760408051600160e51b62461bcd02815260206004820152601d60248201527f636f6e7472696275746f7220766f746564206f6e207468656972205052000000604482015290519081900360640190fd5b60015460025460408051600160e01b63a3b8e7b502815290516001600160a01b0393841693909216916000918391638fc6ad2d91839163a3b8e7b591600480820192602092909190829003018186803b158015610cea57600080fd5b505afa158015610cfe573d6000803e3d6000fd5b505050506040513d6020811015610d1457600080fd5b50516040805163ffffffff841660e01b81526004810192909252516024808301926020929190829003018186803b158015610d4e57600080fd5b505afa158015610d62573d6000803e3d6000fd5b505050506040513d6020811015610d7857600080fd5b505160408051600160e11b63094b38c1028152336004820152905191925082916001600160a01b038616916312967182916024808301926020929190829003018186803b158015610dc857600080fd5b505afa158015610ddc573d6000803e3d6000fd5b505050506040513d6020811015610df257600080fd5b505111610e495760408051600160e51b62461bcd02815260206004820152601d60248201527f766f74657220646f65736e2774206861766520656e6f75676820444944000000604482015290519081900360640190fd5b506001949350505050565b60008181526005602052604080822060035460018201548351600160e01b63b9c105cf0281526004810191909152835192936001600160a01b039092169285928392859263b9c105cf92602480840193919291829003018186803b158015610ebb57600080fd5b505afa158015610ecf573d6000803e3d6000fd5b505050506040513d6040811015610ee557600080fd5b50805160209091015190925090506001816002811115610f0157fe5b14610f0b57600080fd5b50949350505050565b6040805160808101825260008082526020820181905291810182905260608101919091529056fea165627a7a7230582030470792055c13fad4edb3acdb9dcd12e023b67fef6813dbc64e04df5efa9ce10029",
  "source": "pragma solidity ^0.5.8;\n\nimport './lib/Approvable.sol';\nimport './DIDToken.sol';\nimport './Distense.sol';\nimport './Tasks.sol';\n\ncontract PullRequests is Approvable {\n\n    address public DIDTokenAddress;\n    address public DistenseAddress;\n    address public TasksAddress;\n\n    struct PullRequest {\n        address contributor;\n        bytes32 taskId;\n        uint128 prNum;\n        uint256 pctDIDApproved;\n        mapping(address => bool) voted;\n    }\n\n    bytes32[] public pullRequestIds;\n\n    mapping(bytes32 => PullRequest) pullRequests;\n\n    event LogAddPullRequest(bytes32 _prId, bytes32 taskId, uint128 prNum);\n    event LogPullRequestApprovalVote(bytes32 _prId, uint256 pctDIDApproved);\n    event LogRewardPullRequest(bytes32 _prId, bytes32 taskId, uint128 prNum);\n\n    constructor () public {}\n\n    function addPullRequest(bytes32 _prId, bytes32 _taskId, uint128 _prNum) external returns (bool) {\n        pullRequests[_prId].contributor = msg.sender;\n        pullRequests[_prId].taskId = _taskId;\n        pullRequests[_prId].prNum = _prNum;\n        pullRequestIds.push(_prId);\n\n        emit LogAddPullRequest(_prId, _taskId, _prNum);\n        return true;\n    }\n\n    function getPullRequestById(bytes32 _prId) external view returns (address, bytes32, uint128, uint256) {\n        PullRequest memory pr = pullRequests[_prId];\n        return (pr.contributor, pr.taskId, pr.prNum, pr.pctDIDApproved);\n    }\n\n    function getNumPullRequests() external view returns (uint256) {\n        return pullRequestIds.length;\n    }\n\n    function approvePullRequest(bytes32 _prId)\n        external\n    returns (uint256) {\n\n        require(voterCanApprovePullRequest(_prId) == true);\n\n        uint256 taskReward;\n        //  This will fail if task doesn't have determined rewardStatus; serves as a functional modifier\n        taskReward = taskHasReachedDeterminedRewardStatus(_prId);\n\n        Distense distense = Distense(DistenseAddress);\n        DIDToken didToken = DIDToken(DIDTokenAddress);\n\n        PullRequest storage _pr = pullRequests[_prId];\n\n        //  Record approval vote to prevent multiple voting\n        _pr.voted[msg.sender] = true;\n        //  This is not very gas efficient at all but the stack was too deep.  Need to refactor/research ways to improve\n        //  Increment _pr.pctDIDApproved by the lower of the votingPowerLimitParameter or the voters pctDIDOwned\n        uint256 tentativePctDIDApproved;\n        tentativePctDIDApproved += didToken.pctDIDOwned(msg.sender) > distense.getParameterValueByTitle(\n            distense.votingPowerLimitParameterTitle()\n        ) ? distense.getParameterValueByTitle(\n            distense.votingPowerLimitParameterTitle()\n        ) : didToken.pctDIDOwned(msg.sender);\n\n        if (\n            tentativePctDIDApproved > distense.getParameterValueByTitle(\n            distense.pctDIDRequiredToMergePullRequestTitle()\n        )\n        ) {\n            Tasks tasks = Tasks(TasksAddress);\n            Tasks.RewardStatus updatedRewardStatus = tasks.setTaskRewardPaid(_pr.taskId);\n\n            //  Only issueDID after we confirm taskRewardPaid\n            require(updatedRewardStatus == Tasks.RewardStatus.PAID);\n\n            _pr.pctDIDApproved = tentativePctDIDApproved;\n            didToken.rewardContributor(_pr.contributor, taskReward);\n\n            emit LogRewardPullRequest(_prId, _pr.taskId, _pr.prNum);\n        }\n\n        emit LogPullRequestApprovalVote(_prId, _pr.pctDIDApproved);\n        return _pr.pctDIDApproved;\n    }\n\n    function voterCanApprovePullRequest(bytes32 _prId) internal view returns (bool) {\n\n        require(pullRequests[_prId].voted[msg.sender] == false, \"voter already voted on this PR\");\n        require(pullRequests[_prId].contributor != msg.sender, \"contributor voted on their PR\");\n\n        DIDToken didToken = DIDToken(DIDTokenAddress);\n        Distense distense = Distense(DistenseAddress);\n\n        uint256 threshold = distense.getParameterValueByTitle(\n            distense.numDIDRequiredToApproveVotePullRequestParameterTitle()\n        );\n        require(didToken.getNumContributionsDID(msg.sender) > threshold, \"voter doesn't have enough DID\");\n        return true;\n    }\n\n    //    This function is here because it's only called from PullRequests,\n    //    so having it here saves a bit of gas\n    function taskHasReachedDeterminedRewardStatus(bytes32 _prId) internal view returns (uint256) {\n\n        PullRequest storage _pr = pullRequests[_prId];\n        Tasks tasks = Tasks(TasksAddress);\n        uint256 taskReward;\n        Tasks.RewardStatus taskRewardStatus;\n        (\n            taskReward,\n            taskRewardStatus\n        ) = tasks.getTaskRewardAndStatus(_pr.taskId);\n\n        require(taskRewardStatus == Tasks.RewardStatus.DETERMINED);\n\n        return taskReward;\n    }\n\n    function setDIDTokenAddress(address _DIDTokenAddress) public onlyApproved {\n        DIDTokenAddress = _DIDTokenAddress;\n    }\n\n    function setDistenseAddress(address _DistenseAddress) public onlyApproved {\n        DistenseAddress = _DistenseAddress;\n    }\n\n    function setTasksAddress(address _TasksAddress) public onlyApproved {\n        TasksAddress = _TasksAddress;\n    }\n}\n",
  "sourcePath": "/Users/john/distense-contracts/contracts/PullRequests.sol",
  "compiler": {
    "name": "solc",
    "version": "0.5.8+commit.23d335f2.Emscripten.clang"
  },
  "schemaVersion": "3.0.11",
  "updatedAt": "2019-08-01T21:52:24.878Z",
  "devdoc": {
    "methods": {}
  },
  "userdoc": {
    "methods": {}
  }
}