{
  "contractName": "SafeMath",
  "abi": [
    {
      "constant": true,
      "inputs": [
        {
          "name": "numerator",
          "type": "uint256"
        },
        {
          "name": "denominator",
          "type": "uint256"
        },
        {
          "name": "precision",
          "type": "uint256"
        }
      ],
      "name": "percent",
      "outputs": [
        {
          "name": "quotient",
          "type": "uint256"
        }
      ],
      "payable": false,
      "stateMutability": "pure",
      "type": "function"
    }
  ],
  "bytecode": "0x60ca610025600b82828239805160001a60731461001857fe5b30600052607381538281f3fe730000000000000000000000000000000000000000301460806040526004361060325760003560e01c80622c1a9e146037575b600080fd5b605d60048036036060811015604b57600080fd5b5080359060208101359060400135606f565b60408051918252519081900360200190f35b60008082600101600a0a850290506000600a858381608957fe5b0460050181609357fe5b04969550505050505056fea165627a7a72305820ee97195f7d361c41eac0914cfbe4adf000f061a81885ed997a0b47e5438cd8560029",
  "source": "pragma solidity ^0.5.8;\n\nlibrary SafeMath {\n  function mul(uint256 a, uint256 b) internal pure returns (uint256) {\n    if (a == 0) {\n      return 0;\n    }\n    uint256 c = a * b;\n    assert(c / a == b);\n    return c;\n  }\n\n  function div(uint256 a, uint256 b) internal pure returns (uint256) {\n    // assert(b > 0); // Solidity automatically throws when dividing by 0\n    uint256 c = a / b;\n    // assert(a == b * c + a % b); // There is no case in which this doesn't hold\n    return c;\n  }\n\n  function sub(uint256 a, uint256 b) internal pure returns (uint256) {\n    assert(b <= a);\n    return a - b;\n  }\n\n  function add(uint256 a, uint256 b) internal pure returns (uint256) {\n    uint256 c = a + b;\n    assert(c >= a);\n    return c;\n  }\n\n\n  function percent(uint numerator, uint denominator, uint precision) public pure\n  returns(uint quotient) {\n\n    // caution, check safe-to-multiply here\n    uint _numerator  = numerator * 10 ** (precision + 1);\n\n    // with rounding of last digit\n    uint _quotient =  ((_numerator / denominator) + 5) / 10;\n    return _quotient;\n  }\n\n}\n",
  "sourcePath": "/Users/john/distense-contracts/contracts/lib/SafeMath.sol",
  "compiler": {
    "name": "solc",
    "version": "0.5.8+commit.23d335f2.Emscripten.clang"
  },
  "schemaVersion": "3.0.11",
  "updatedAt": "2019-08-01T21:52:23.180Z",
  "devdoc": {
    "methods": {}
  },
  "userdoc": {
    "methods": {}
  }
}