{
  "contractName": "Tasks",
  "abi": [
    {
      "constant": true,
      "inputs": [],
      "name": "DistenseAddress",
      "outputs": [
        {
          "name": "",
          "type": "address"
        }
      ],
      "payable": false,
      "stateMutability": "view",
      "type": "function"
    },
    {
      "constant": true,
      "inputs": [
        {
          "name": "",
          "type": "uint256"
        }
      ],
      "name": "taskIds",
      "outputs": [
        {
          "name": "",
          "type": "bytes32"
        }
      ],
      "payable": false,
      "stateMutability": "view",
      "type": "function"
    },
    {
      "constant": false,
      "inputs": [
        {
          "name": "_address",
          "type": "address"
        }
      ],
      "name": "revokeApproval",
      "outputs": [],
      "payable": false,
      "stateMutability": "nonpayable",
      "type": "function"
    },
    {
      "constant": true,
      "inputs": [],
      "name": "claimDuration",
      "outputs": [
        {
          "name": "",
          "type": "uint256"
        }
      ],
      "payable": false,
      "stateMutability": "view",
      "type": "function"
    },
    {
      "constant": true,
      "inputs": [],
      "name": "DIDTokenAddress",
      "outputs": [
        {
          "name": "",
          "type": "address"
        }
      ],
      "payable": false,
      "stateMutability": "view",
      "type": "function"
    },
    {
      "constant": true,
      "inputs": [
        {
          "name": "",
          "type": "address"
        }
      ],
      "name": "approved",
      "outputs": [
        {
          "name": "",
          "type": "bool"
        }
      ],
      "payable": false,
      "stateMutability": "view",
      "type": "function"
    },
    {
      "constant": false,
      "inputs": [
        {
          "name": "_address",
          "type": "address"
        }
      ],
      "name": "approve",
      "outputs": [],
      "payable": false,
      "stateMutability": "nonpayable",
      "type": "function"
    },
    {
      "inputs": [],
      "payable": false,
      "stateMutability": "nonpayable",
      "type": "constructor"
    },
    {
      "anonymous": false,
      "inputs": [
        {
          "indexed": false,
          "name": "taskId",
          "type": "bytes32"
        },
        {
          "indexed": false,
          "name": "title",
          "type": "string"
        }
      ],
      "name": "LogAddTask",
      "type": "event"
    },
    {
      "anonymous": false,
      "inputs": [
        {
          "indexed": false,
          "name": "taskId",
          "type": "bytes32"
        },
        {
          "indexed": false,
          "name": "claimedDate",
          "type": "uint256"
        },
        {
          "indexed": false,
          "name": "claimedBy",
          "type": "address"
        }
      ],
      "name": "LogClaimTask",
      "type": "event"
    },
    {
      "anonymous": false,
      "inputs": [
        {
          "indexed": false,
          "name": "taskId",
          "type": "bytes32"
        },
        {
          "indexed": false,
          "name": "reward",
          "type": "uint256"
        },
        {
          "indexed": false,
          "name": "pctDIDVoted",
          "type": "uint256"
        }
      ],
      "name": "LogTaskRewardVote",
      "type": "event"
    },
    {
      "anonymous": false,
      "inputs": [
        {
          "indexed": false,
          "name": "taskId",
          "type": "bytes32"
        },
        {
          "indexed": false,
          "name": "reward",
          "type": "uint256"
        }
      ],
      "name": "LogTaskRewardDetermined",
      "type": "event"
    },
    {
      "constant": false,
      "inputs": [
        {
          "name": "_taskId",
          "type": "bytes32"
        },
        {
          "name": "_title",
          "type": "string"
        }
      ],
      "name": "addTask",
      "outputs": [
        {
          "name": "",
          "type": "bool"
        }
      ],
      "payable": false,
      "stateMutability": "nonpayable",
      "type": "function"
    },
    {
      "constant": true,
      "inputs": [
        {
          "name": "_taskId",
          "type": "bytes32"
        }
      ],
      "name": "getTaskById",
      "outputs": [
        {
          "name": "",
          "type": "string"
        },
        {
          "name": "",
          "type": "address"
        },
        {
          "name": "",
          "type": "uint256"
        },
        {
          "name": "",
          "type": "uint8"
        },
        {
          "name": "",
          "type": "uint256"
        },
        {
          "name": "",
          "type": "uint64"
        }
      ],
      "payable": false,
      "stateMutability": "view",
      "type": "function"
    },
    {
      "constant": true,
      "inputs": [
        {
          "name": "_taskId",
          "type": "bytes32"
        }
      ],
      "name": "taskExists",
      "outputs": [
        {
          "name": "",
          "type": "bool"
        }
      ],
      "payable": false,
      "stateMutability": "view",
      "type": "function"
    },
    {
      "constant": true,
      "inputs": [],
      "name": "getNumTasks",
      "outputs": [
        {
          "name": "",
          "type": "uint256"
        }
      ],
      "payable": false,
      "stateMutability": "view",
      "type": "function"
    },
    {
      "constant": false,
      "inputs": [
        {
          "name": "_taskId",
          "type": "bytes32"
        },
        {
          "name": "_reward",
          "type": "uint256"
        }
      ],
      "name": "taskRewardVote",
      "outputs": [
        {
          "name": "",
          "type": "bool"
        }
      ],
      "payable": false,
      "stateMutability": "nonpayable",
      "type": "function"
    },
    {
      "constant": false,
      "inputs": [
        {
          "name": "_taskId",
          "type": "bytes32"
        }
      ],
      "name": "claimTask",
      "outputs": [
        {
          "name": "",
          "type": "bool"
        }
      ],
      "payable": false,
      "stateMutability": "nonpayable",
      "type": "function"
    },
    {
      "constant": true,
      "inputs": [
        {
          "name": "_taskId",
          "type": "bytes32"
        }
      ],
      "name": "taskIsClaimed",
      "outputs": [
        {
          "name": "",
          "type": "bool"
        }
      ],
      "payable": false,
      "stateMutability": "view",
      "type": "function"
    },
    {
      "constant": true,
      "inputs": [
        {
          "name": "_taskId",
          "type": "bytes32"
        }
      ],
      "name": "getTaskReward",
      "outputs": [
        {
          "name": "",
          "type": "uint256"
        }
      ],
      "payable": false,
      "stateMutability": "view",
      "type": "function"
    },
    {
      "constant": true,
      "inputs": [
        {
          "name": "_taskId",
          "type": "bytes32"
        }
      ],
      "name": "getTaskRewardAndStatus",
      "outputs": [
        {
          "name": "",
          "type": "uint256"
        },
        {
          "name": "",
          "type": "uint8"
        }
      ],
      "payable": false,
      "stateMutability": "view",
      "type": "function"
    },
    {
      "constant": false,
      "inputs": [
        {
          "name": "_taskId",
          "type": "bytes32"
        }
      ],
      "name": "setTaskRewardPaid",
      "outputs": [
        {
          "name": "",
          "type": "uint8"
        }
      ],
      "payable": false,
      "stateMutability": "nonpayable",
      "type": "function"
    },
    {
      "constant": false,
      "inputs": [
        {
          "name": "_taskId",
          "type": "bytes32"
        }
      ],
      "name": "deleteTask",
      "outputs": [
        {
          "name": "",
          "type": "bool"
        }
      ],
      "payable": false,
      "stateMutability": "nonpayable",
      "type": "function"
    },
    {
      "constant": false,
      "inputs": [
        {
          "name": "_DIDTokenAddress",
          "type": "address"
        }
      ],
      "name": "setDIDTokenAddress",
      "outputs": [],
      "payable": false,
      "stateMutability": "nonpayable",
      "type": "function"
    },
    {
      "constant": false,
      "inputs": [
        {
          "name": "_DistenseAddress",
          "type": "address"
        }
      ],
      "name": "setDistenseAddress",
      "outputs": [],
      "payable": false,
      "stateMutability": "nonpayable",
      "type": "function"
    }
  ],
  "bytecode": "0x608060405262093a8060035534801561001757600080fd5b50336000908152602081905260409020805460ff1916600117905561183e806100416000396000f3fe608060405234801561001057600080fd5b506004361061012c5760003560e01c8063ac847d49116100ad578063d30bf32311610071578063d30bf3231461037a578063d8b964e6146103bb578063d8f6dcf2146103e1578063daea85c5146104cd578063e64f15a2146104f35761012c565b8063ac847d4914610270578063b7825cfc14610278578063b7bf356a146102ef578063b9c105cf1461030c578063cf2fb7ca146103545761012c565b8063497a7b48116100f4578063497a7b48146101da57806370f8c6f9146102115780639f1779da1461022e578063a022c15e1461024b578063ab1a4d94146102685761012c565b80630afdbaed146101315780631efe3abf146101555780632a4caf671461016f57806339118d2514610197578063484685b0146101b4575b600080fd5b610139610510565b604080516001600160a01b039092168252519081900360200190f35b61015d61051f565b60408051918252519081900360200190f35b6101956004803603602081101561018557600080fd5b50356001600160a01b0316610526565b005b61015d600480360360208110156101ad57600080fd5b5035610564565b610195600480360360208110156101ca57600080fd5b50356001600160a01b0316610582565b6101fd600480360360408110156101f057600080fd5b50803590602001356105d2565b604080519115158252519081900360200190f35b6101fd6004803603602081101561022757600080fd5b5035610cc1565b6101fd6004803603602081101561024457600080fd5b5035610d55565b61015d6004803603602081101561026157600080fd5b5035610d72565b61015d610d87565b610139610d8d565b6101fd6004803603604081101561028e57600080fd5b813591908101906040810160208201356401000000008111156102b057600080fd5b8201836020820111156102c257600080fd5b803590602001918460018302840111640100000000831117156102e457600080fd5b509092509050610d9c565b6101fd6004803603602081101561030557600080fd5b50356111c7565b6103296004803603602081101561032257600080fd5b50356111ee565b6040518083815260200182600281111561033f57fe5b60ff1681526020019250505060405180910390f35b6101956004803603602081101561036a57600080fd5b50356001600160a01b031661120f565b6103976004803603602081101561039057600080fd5b503561124d565b604051808260028111156103a757fe5b60ff16815260200191505060405180910390f35b6101fd600480360360208110156103d157600080fd5b50356001600160a01b031661128e565b6103fe600480360360208110156103f757600080fd5b50356112a3565b6040518080602001876001600160a01b03166001600160a01b0316815260200186815260200185600281111561043057fe5b60ff1681526020018481526020018367ffffffffffffffff1667ffffffffffffffff168152602001828103825288818151815260200191508051906020019080838360005b8381101561048d578181015183820152602001610475565b50505050905090810190601f1680156104ba5780820380516001836020036101000a031916815260200191505b5097505050505050505060405180910390f35b610195600480360360208110156104e357600080fd5b50356001600160a01b0316611424565b6101fd6004803603602081101561050957600080fd5b5035611477565b6002546001600160a01b031681565b6004545b90565b3360009081526020819052604090205460ff1661054257600080fd5b600280546001600160a01b0319166001600160a01b0392909216919091179055565b6004818154811061057157fe5b600091825260209091200154905081565b3360009081526020819052604090205460ff1661059e57600080fd5b6001600160a01b0381166105b157600080fd5b6001600160a01b03166000908152602081905260409020805460ff19169055565b60015460408051600160e11b631a82339102815233600482015290516000926001600160a01b031691839183916335046722916024808301926020929190829003018186803b15801561062457600080fd5b505afa158015610638573d6000803e3d6000fd5b505050506040513d602081101561064e57600080fd5b505160025460008781526005602052604090209192506001600160a01b03169085670de0b6b3a7640000028160020154141561068957600080fd5b6001600382015460ff16600281111561069e57fe5b14156106a957600080fd5b33600090815260068201602052604090205460ff16156106c857600080fd5b816001600160a01b0316638fc6ad2d836001600160a01b0316636263a27f6040518163ffffffff1660e01b815260040160206040518083038186803b15801561071057600080fd5b505afa158015610724573d6000803e3d6000fd5b505050506040513d602081101561073a57600080fd5b50516040805163ffffffff841660e01b81526004810192909252516024808301926020929190829003018186803b15801561077457600080fd5b505afa158015610788573d6000803e3d6000fd5b505050506040513d602081101561079e57600080fd5b505183116107ab57600080fd5b816001600160a01b0316638fc6ad2d836001600160a01b0316637da1373a6040518163ffffffff1660e01b815260040160206040518083038186803b1580156107f357600080fd5b505afa158015610807573d6000803e3d6000fd5b505050506040513d602081101561081d57600080fd5b50516040805163ffffffff841660e01b81526004810192909252516024808301926020929190829003018186803b15801561085757600080fd5b505afa15801561086b573d6000803e3d6000fd5b505050506040513d602081101561088157600080fd5b5051670de0b6b3a76400008702111561089957600080fd5b3360008181526006830160209081526040808320805460ff191660011790558051600160e41b630880049502815260048101949094525191926001600160a01b03881692638800495092602480840193919291829003018186803b15801561090057600080fd5b505afa158015610914573d6000803e3d6000fd5b505050506040513d602081101561092a57600080fd5b5051600480840180548301905560408051600160e01b63e2f97c8d02815290519293506000926001600160a01b03871692638fc6ad2d92849263e2f97c8d92828101926020929190829003018186803b15801561098657600080fd5b505afa15801561099a573d6000803e3d6000fd5b505050506040513d60208110156109b057600080fd5b50516040805163ffffffff841660e01b81526004810192909252516024808301926020929190829003018186803b1580156109ea57600080fd5b505afa1580156109fe573d6000803e3d6000fd5b505050506040513d6020811015610a1457600080fd5b505190506000818311610a275782610a29565b815b905060008085600201548b670de0b6b3a7640000021115610a8057610a5c8b670de0b6b3a76400000287600201546115d2565b60028701805468056bc75e2d63100000868402049081019091559092509050610ab9565b610a9886600201548c670de0b6b3a7640000026115d2565b60028701805468056bc75e2d63100000868402049081900390915590925090505b60058601805467ffffffffffffffff8082166001011667ffffffffffffffff1990911617905560408051600160e01b63fb4347eb02815290516000916001600160a01b038a1691638fc6ad2d91839163fb4347eb91600480820192602092909190829003018186803b158015610b2e57600080fd5b505afa158015610b42573d6000803e3d6000fd5b505050506040513d6020811015610b5857600080fd5b50516040805163ffffffff841660e01b81526004810192909252516024808301926020929190829003018186803b158015610b9257600080fd5b505afa158015610ba6573d6000803e3d6000fd5b505050506040513d6020811015610bbc57600080fd5b505160408051600160e01b63cec9bb9f02815290519192506000916001600160a01b038b1691638fc6ad2d91839163cec9bb9f916004808301926020929190829003018186803b158015610c0f57600080fd5b505afa158015610c23573d6000803e3d6000fd5b505050506040513d6020811015610c3957600080fd5b50516040805163ffffffff841660e01b81526004810192909252516024808301926020929190829003018186803b158015610c7357600080fd5b505afa158015610c87573d6000803e3d6000fd5b505050506040513d6020811015610c9d57600080fd5b50519050610cac8e83836115e4565b5060019e9d5050505050505050505050505050565b6000610ccc82610d55565b15610cd657600080fd5b6000828152600560209081526040918290204260088201819055600990910180546001600160a01b0319163317908190558351868152928301919091526001600160a01b03168183015290517fcdfab72688b52940a87075138524c13372e078225c30159379a5df95186c14659181900360600190a15060015b919050565b60009081526005602052604090206008015462093a800142111590565b60009081526005602052604090206002015490565b60035481565b6001546001600160a01b031681565b60015460408051600160e11b631a82339102815233600482015290516000926001600160a01b031691839183916335046722916024808301926020929190829003018186803b158015610dee57600080fd5b505afa158015610e02573d6000803e3d6000fd5b505050506040513d6020811015610e1857600080fd5b505160025460408051600160e01b6365c4284b02815290519293506001600160a01b03909116916000918391638fc6ad2d9183916365c4284b91600480820192602092909190829003018186803b158015610e7257600080fd5b505afa158015610e86573d6000803e3d6000fd5b505050506040513d6020811015610e9c57600080fd5b50516040805163ffffffff841660e01b81526004810192909252516024808301926020929190829003018186803b158015610ed657600080fd5b505afa158015610eea573d6000803e3d6000fd5b505050506040513d6020811015610f0057600080fd5b5051905080831015610f1157600080fd5b60008787604051602001808383808284376040805191909301818103601f190182528352805160209182012060008181526006909252929020549195505060ff16159250610fac9150505760408051600160e51b62461bcd02815260206004820152601960248201527f5461736b207469746c6520616c72656164792065786973747300000000000000604482015290519081900360640190fd5b60025460008a81526005602052604090206001810180546001600160a01b031916331790556001600160a01b0390911690610fe8908a8a611697565b50806001600160a01b0316638fc6ad2d826001600160a01b03166345a528bf6040518163ffffffff1660e01b815260040160206040518083038186803b15801561103157600080fd5b505afa158015611045573d6000803e3d6000fd5b505050506040513d602081101561105b57600080fd5b50516040805163ffffffff841660e01b81526004810192909252516024808301926020929190829003018186803b15801561109557600080fd5b505afa1580156110a9573d6000803e3d6000fd5b505050506040513d60208110156110bf57600080fd5b505160008b815260056020526040812060028101929092556003909101805460ff1916600183021790555060048054600180820183557f8a35acfbc15ff81a39ae7d344fd709f28e8600b4aa8c65c6b64bfe7fe36bd19b9091018c90556000848152600660209081526040808320805460ff191690941790935592548d8252600584529082902060001990910160079091015580518c81529182018181529082018a90527ffafee1e1d1d7b07d7e2e381764370256754d2d4b8b82d9c83e91d3bbba0b3291918c918c918c9160608201848480828437600083820152604051601f909101601f1916909201829003965090945050505050a15060019998505050505050505050565b60009081526005602052604090205460026001821615610100026000190190911604151590565b6000818152600560205260409020600281015460039091015460ff16915091565b3360009081526020819052604090205460ff1661122b57600080fd5b600180546001600160a01b0319166001600160a01b0392909216919091179055565b3360009081526020819052604081205460ff1661126957600080fd5b506000908152600560205260409020600301805460ff19166002179081905560ff1690565b60006020819052908152604090205460ff1681565b606060008060008060006112b5611715565b6000888152600560209081526040918290208251815460026001821615610100026000190190911604601f8101849004909302810161014090810190945261012081018381529093919284928491908401828280156113555780601f1061132a57610100808354040283529160200191611355565b820191906000526020600020905b81548152906001019060200180831161133857829003601f168201915b505050918352505060018201546001600160a01b031660208201526002808301546040830152600383015460609092019160ff169081111561139357fe5b600281111561139e57fe5b81526004820154602080830191909152600583015467ffffffffffffffff16604080840191909152600784015460608085019190915260088501546080808601919091526009909501546001600160a01b031660a0948501528551928601519186015190860151948601519590930151919d909c50919a50919850919650945092505050565b3360009081526020819052604090205460ff1661144057600080fd5b6001600160a01b03811661145357600080fd5b6001600160a01b03166000908152602081905260409020805460ff19166001179055565b3360009081526020819052604081205460ff1661149357600080fd5b60008281526005602052604090206002600382015460ff1660028111156114b657fe5b14156115c95760008381526005602052604090206007015460048054829081106114dc57fe5b600091825260208083209091018290558582526005905260408120906115028282611788565b50600181810180546001600160a01b031990811690915560006002840181905560038401805460ff19169055600480850182905560058501805467ffffffffffffffff191690556007850182905560088501919091556009909301805490911690559054908111156115bd5760006004600183038154811061158057fe5b90600052602060002001549050806004848154811061159b57fe5b60009182526020909120015560048054906115ba9060001983016117cf565b50505b60019350505050610d50565b50600092915050565b6000828211156115de57fe5b50900390565b60008381526005602052604081206004810154841080611622575061161183670de0b6b3a7640000611682565b600582015467ffffffffffffffff16115b1561167757600281015460408051878152602081019290925280517fea376df55f15b85259aed67aa0f87a23ee9f3b625c6151a53eef59c2baa883ca9281900390910190a160038101805460ff191660011790555b506001949350505050565b60008082848161168e57fe5b04949350505050565b828054600181600116156101000203166002900490600052602060002090601f016020900481019282601f106116d85782800160ff19823516178555611705565b82800160010185558215611705579182015b828111156117055782358255916020019190600101906116ea565b506117119291506117f8565b5090565b6040518061012001604052806060815260200160006001600160a01b03168152602001600081526020016000600281111561174c57fe5b815260200160008152602001600067ffffffffffffffff168152602001600081526020016000815260200160006001600160a01b031681525090565b50805460018160011615610100020316600290046000825580601f106117ae57506117cc565b601f0160209004906000526020600020908101906117cc91906117f8565b50565b8154818355818111156117f3576000838152602090206117f39181019083016117f8565b505050565b61052391905b8082111561171157600081556001016117fe56fea165627a7a7230582028e7c691c623f345ac6582c346aa1a0488d815c36fab77de708c2ad41585d40a0029",
  "source": "pragma solidity ^0.5.8;\n\nimport './DIDToken.sol';\nimport './Distense.sol';\nimport './lib/SafeMath.sol';\n\ncontract Tasks is Approvable {\n\n    using SafeMath for uint256;\n\n    address public DIDTokenAddress;\n    address public DistenseAddress;\n    uint public claimDuration = 7 days;\n\n    bytes32[] public taskIds;\n\n    enum RewardStatus {TENTATIVE, DETERMINED, PAID}\n\n    struct Task {\n        string title;\n        address createdBy;\n        uint256 reward;\n        RewardStatus rewardStatus;\n        uint256 pctDIDVoted;\n        uint64 numVotes;\n        mapping(address => bool) rewardVotes;\n        uint256 taskIdsIndex;   // for easy later deletion to minimize query time and blockchain size\n        uint claimedDate;\n        address claimedBy;\n    }\n\n    mapping(bytes32 => Task) tasks;\n\n    // used to check for duplicates\n    mapping(bytes32 => bool) tasksTitles;\n\n    event LogAddTask(bytes32 taskId, string title);\n    event LogClaimTask(bytes32 taskId, uint claimedDate, address claimedBy);\n    event LogTaskRewardVote(bytes32 taskId, uint256 reward, uint256 pctDIDVoted);\n    event LogTaskRewardDetermined(bytes32 taskId, uint256 reward);\n\n    constructor () public {}\n\n    function addTask(bytes32 _taskId, string calldata _title) external hasEnoughDIDToAddTask returns\n        (bool) {\n\n        bytes32 titleBytes32 = keccak256(abi.encodePacked(_title));\n        require(!tasksTitles[titleBytes32], \"Task title already exists\");\n\n        Distense distense = Distense(DistenseAddress);\n\n        tasks[_taskId].createdBy = msg.sender;\n        tasks[_taskId].title = _title;\n        tasks[_taskId].reward = distense.getParameterValueByTitle(distense.defaultRewardParameterTitle());\n        tasks[_taskId].rewardStatus = RewardStatus.TENTATIVE;\n\n        taskIds.push(_taskId);\n        tasksTitles[titleBytes32] = true;\n        tasks[_taskId].taskIdsIndex = taskIds.length - 1;\n        emit LogAddTask(_taskId, _title);\n\n        return true;\n    }\n\n    function getTaskById(bytes32 _taskId) external view returns (\n        string memory,\n        address,\n        uint256,\n        Tasks.RewardStatus,\n        uint256,\n        uint64\n    ) {\n\n        Task memory task = tasks[_taskId];\n        return (\n            task.title,\n            task.createdBy,\n            task.reward,\n            task.rewardStatus,\n            task.pctDIDVoted,\n            task.numVotes\n        );\n\n    }\n\n    function taskExists(bytes32 _taskId) external view returns (bool) {\n        return bytes(tasks[_taskId].title).length != 0;\n    }\n\n    function getNumTasks() external view returns (uint256) {\n        return taskIds.length;\n    }\n\n    function taskRewardVote(bytes32 _taskId, uint256 _reward) external returns (bool) {\n\n        DIDToken didToken = DIDToken(DIDTokenAddress);\n        uint256 balance = didToken.getAddressBalance(msg.sender);\n        Distense distense = Distense(DistenseAddress);\n\n        Task storage task = tasks[_taskId];\n\n        require(_reward >= 0);\n\n        //  Essentially refund the remaining gas if user's vote will have no effect\n        require(task.reward != (_reward * 1 ether));\n\n        // Don't let the voter vote if the reward has already been determined\n        require(task.rewardStatus != RewardStatus.DETERMINED);\n\n        //  Has the voter already voted on this task?\n        require(!task.rewardVotes[msg.sender]);\n\n        //  Does the voter own at least as many DID as the reward their voting for?\n        //  This ensures new contributors don't have too much sway over the issuance of new DID.\n        require(balance > distense.getParameterValueByTitle(distense.numDIDRequiredToTaskRewardVoteParameterTitle()));\n\n        //  Require the reward to be less than or equal to the maximum reward parameter,\n        //  which basically is a hard, floating limit on the number of DID that can be issued for any single task\n        require((_reward * 1 ether) <= distense.getParameterValueByTitle(distense.maxRewardParameterTitle()));\n\n        task.rewardVotes[msg.sender] = true;\n\n        uint256 pctDIDOwned = didToken.pctDIDOwned(msg.sender);\n        task.pctDIDVoted = task.pctDIDVoted + pctDIDOwned;\n\n        //  Get the current votingPowerLimit\n        uint256 votingPowerLimit = distense.getParameterValueByTitle(distense.votingPowerLimitParameterTitle());\n        //  For voting purposes, limit the pctDIDOwned\n        uint256 limitedVotingPower = pctDIDOwned > votingPowerLimit ? votingPowerLimit : pctDIDOwned;\n\n        uint256 difference;\n        uint256 update;\n\n        if ((_reward * 1 ether) > task.reward) {\n            difference = SafeMath.sub((_reward * 1 ether), task.reward);\n            update = (limitedVotingPower * difference) / (1 ether * 100);\n            task.reward += update;\n        } else {\n            difference = SafeMath.sub(task.reward, (_reward * 1 ether));\n            update = (limitedVotingPower * difference) / (1 ether * 100);\n            task.reward -= update;\n        }\n\n        task.numVotes++;\n\n        uint256 pctDIDVotedThreshold = distense.getParameterValueByTitle(\n            distense.pctDIDToDetermineTaskRewardParameterTitle()\n        );\n\n        uint256 minNumVoters = distense.getParameterValueByTitle(\n            distense.minNumberOfTaskRewardVotersParameterTitle()\n        );\n\n        updateRewardStatusIfAppropriate(_taskId, pctDIDVotedThreshold, minNumVoters);\n        return true;\n\n    }\n\n    function claimTask(bytes32 _taskId) external returns (bool) {\n        require(!taskIsClaimed(_taskId));\n        tasks[_taskId].claimedDate = now;\n        tasks[_taskId].claimedBy = msg.sender;\n        emit LogClaimTask(_taskId, tasks[_taskId].claimedDate, tasks[_taskId].claimedBy);\n        return true;\n    }\n\n    function taskIsClaimed(bytes32 _taskId) public view returns (bool) {\n        return !(now > tasks[_taskId].claimedDate + 7 days);\n    }\n\n    function updateRewardStatusIfAppropriate(bytes32 _taskId, uint256 pctDIDVotedThreshold, uint256 _minNumVoters) internal returns (bool)  {\n\n        Task storage task = tasks[_taskId];\n\n        if (task.pctDIDVoted > pctDIDVotedThreshold || task.numVotes > SafeMath.div(_minNumVoters, 1 ether)) {\n            emit LogTaskRewardDetermined(_taskId, task.reward);\n            RewardStatus rewardStatus;\n            rewardStatus = RewardStatus.DETERMINED;\n            task.rewardStatus = rewardStatus;\n        }\n        return true;\n    }\n\n    function getTaskReward(bytes32 _taskId) external view returns (uint256) {\n        return tasks[_taskId].reward;\n    }\n\n    function getTaskRewardAndStatus(bytes32 _taskId) external view returns (uint256, RewardStatus) {\n        return (\n            tasks[_taskId].reward,\n            tasks[_taskId].rewardStatus\n        );\n    }\n\n    function setTaskRewardPaid(bytes32 _taskId) external onlyApproved returns (RewardStatus) {\n        tasks[_taskId].rewardStatus = RewardStatus.PAID;\n        return tasks[_taskId].rewardStatus;\n    }\n\n    //  Allow deleting of PAID taskIds to minimize blockchain size & query time on client\n    //  taskIds are memorialized in the form of events/logs, so this doesn't truly delete them,\n    //  it just prevents them from slowing down query times\n    function deleteTask(bytes32 _taskId) external onlyApproved returns (bool) {\n        Task storage task = tasks[_taskId];\n\n        if (task.rewardStatus == RewardStatus.PAID) {\n            uint256 index = tasks[_taskId].taskIdsIndex;\n            delete taskIds[index];\n            delete tasks[_taskId];\n\n            // Move the last element to the deleted index.  If we don't do this there are no efficiencies and the index will still still be\n            // iterated over on the client\n            uint256 taskIdsLength = taskIds.length;\n            if (taskIdsLength > 1) {\n                bytes32 lastElement = taskIds[taskIdsLength - 1];\n                taskIds[index] = lastElement;\n                taskIds.length--;\n            }\n            return true;\n        }\n        return false;\n    }\n\n    modifier hasEnoughDIDToAddTask() {\n        DIDToken didToken = DIDToken(DIDTokenAddress);\n        uint256 balance = didToken.getAddressBalance(msg.sender);\n\n        Distense distense = Distense(DistenseAddress);\n        uint256 numDIDRequiredToAddTask = distense.getParameterValueByTitle(\n            distense.numDIDRequiredToAddTaskParameterTitle()\n        );\n        require(balance >= numDIDRequiredToAddTask);\n        _;\n    }\n\n    function setDIDTokenAddress(address _DIDTokenAddress) public onlyApproved {\n        DIDTokenAddress = _DIDTokenAddress;\n    }\n\n    function setDistenseAddress(address _DistenseAddress) public onlyApproved {\n        DistenseAddress = _DistenseAddress;\n    }\n\n}\n",
  "sourcePath": "/Users/john/distense-contracts/contracts/Tasks.sol",
  "compiler": {
    "name": "solc",
    "version": "0.5.8+commit.23d335f2.Emscripten.clang"
  },
  "schemaVersion": "3.0.11",
  "updatedAt": "2019-08-01T21:52:24.886Z",
  "devdoc": {
    "methods": {}
  },
  "userdoc": {
    "methods": {}
  }
}